{
    "contractName": "SingleTokenBank",
    "abi": [
        {
            "constant": false,
            "inputs": [
                {
                    "name": "account",
                    "type": "address"
                }
            ],
            "name": "authorizeCroupier",
            "outputs": [],
            "payable": false,
            "stateMutability": "nonpayable",
            "type": "function"
        },
        {
            "constant": false,
            "inputs": [
                {
                    "name": "time",
                    "type": "uint256"
                }
            ],
            "name": "changeReleaseTime",
            "outputs": [],
            "payable": false,
            "stateMutability": "nonpayable",
            "type": "function"
        },
        {
            "constant": false,
            "inputs": [],
            "name": "unpause",
            "outputs": [],
            "payable": false,
            "stateMutability": "nonpayable",
            "type": "function"
        },
        {
            "constant": true,
            "inputs": [],
            "name": "paused",
            "outputs": [
                {
                    "name": "",
                    "type": "bool"
                }
            ],
            "payable": false,
            "stateMutability": "view",
            "type": "function"
        },
        {
            "constant": true,
            "inputs": [],
            "name": "maxDeposit",
            "outputs": [
                {
                    "name": "",
                    "type": "uint256"
                }
            ],
            "payable": false,
            "stateMutability": "view",
            "type": "function"
        },
        {
            "constant": true,
            "inputs": [],
            "name": "totalPlayerBalance",
            "outputs": [
                {
                    "name": "",
                    "type": "uint256"
                }
            ],
            "payable": false,
            "stateMutability": "view",
            "type": "function"
        },
        {
            "constant": true,
            "inputs": [
                {
                    "name": "",
                    "type": "address"
                }
            ],
            "name": "withdrawals",
            "outputs": [
                {
                    "name": "amount",
                    "type": "uint256"
                },
                {
                    "name": "timestamp",
                    "type": "uint256"
                }
            ],
            "payable": false,
            "stateMutability": "view",
            "type": "function"
        },
        {
            "constant": false,
            "inputs": [],
            "name": "pause",
            "outputs": [],
            "payable": false,
            "stateMutability": "nonpayable",
            "type": "function"
        },
        {
            "constant": true,
            "inputs": [],
            "name": "maxWithdrawal",
            "outputs": [
                {
                    "name": "",
                    "type": "uint256"
                }
            ],
            "payable": false,
            "stateMutability": "view",
            "type": "function"
        },
        {
            "constant": true,
            "inputs": [],
            "name": "owner",
            "outputs": [
                {
                    "name": "",
                    "type": "address"
                }
            ],
            "payable": false,
            "stateMutability": "view",
            "type": "function"
        },
        {
            "constant": false,
            "inputs": [
                {
                    "name": "account",
                    "type": "address"
                }
            ],
            "name": "changeOwner",
            "outputs": [],
            "payable": false,
            "stateMutability": "nonpayable",
            "type": "function"
        },
        {
            "constant": false,
            "inputs": [
                {
                    "name": "account",
                    "type": "address"
                }
            ],
            "name": "authorizeAccount",
            "outputs": [],
            "payable": false,
            "stateMutability": "nonpayable",
            "type": "function"
        },
        {
            "constant": false,
            "inputs": [
                {
                    "name": "account",
                    "type": "address"
                }
            ],
            "name": "unauthorizeAccount",
            "outputs": [],
            "payable": false,
            "stateMutability": "nonpayable",
            "type": "function"
        },
        {
            "constant": true,
            "inputs": [
                {
                    "name": "",
                    "type": "address"
                }
            ],
            "name": "authorized",
            "outputs": [
                {
                    "name": "",
                    "type": "bool"
                }
            ],
            "payable": false,
            "stateMutability": "view",
            "type": "function"
        },
        {
            "constant": true,
            "inputs": [],
            "name": "releaseTime",
            "outputs": [
                {
                    "name": "",
                    "type": "uint256"
                }
            ],
            "payable": false,
            "stateMutability": "view",
            "type": "function"
        },
        {
            "constant": true,
            "inputs": [
                {
                    "name": "",
                    "type": "address"
                }
            ],
            "name": "croupier",
            "outputs": [
                {
                    "name": "",
                    "type": "bool"
                }
            ],
            "payable": false,
            "stateMutability": "view",
            "type": "function"
        },
        {
            "constant": false,
            "inputs": [
                {
                    "name": "account",
                    "type": "address"
                }
            ],
            "name": "unauthorizeCroupier",
            "outputs": [],
            "payable": false,
            "stateMutability": "nonpayable",
            "type": "function"
        },
        {
            "constant": true,
            "inputs": [],
            "name": "token",
            "outputs": [
                {
                    "name": "",
                    "type": "address"
                }
            ],
            "payable": false,
            "stateMutability": "view",
            "type": "function"
        },
        {
            "inputs": [
                {
                    "name": "_token",
                    "type": "address"
                },
                {
                    "name": "_authorized",
                    "type": "address"
                },
                {
                    "name": "_owner",
                    "type": "address"
                }
            ],
            "payable": false,
            "stateMutability": "nonpayable",
            "type": "constructor"
        },
        {
            "anonymous": false,
            "inputs": [
                {
                    "indexed": false,
                    "name": "_player",
                    "type": "address"
                },
                {
                    "indexed": false,
                    "name": "_amount",
                    "type": "uint256"
                }
            ],
            "name": "Deposit",
            "type": "event"
        },
        {
            "anonymous": false,
            "inputs": [
                {
                    "indexed": false,
                    "name": "_player",
                    "type": "address"
                },
                {
                    "indexed": false,
                    "name": "_amount",
                    "type": "uint256"
                }
            ],
            "name": "WithdrawalEvent",
            "type": "event"
        },
        {
            "anonymous": false,
            "inputs": [
                {
                    "indexed": false,
                    "name": "_player",
                    "type": "address"
                },
                {
                    "indexed": false,
                    "name": "_amount",
                    "type": "uint256"
                }
            ],
            "name": "WithdrawalSet",
            "type": "event"
        },
        {
            "anonymous": false,
            "inputs": [
                {
                    "indexed": false,
                    "name": "_maxWithdrawal",
                    "type": "uint256"
                }
            ],
            "name": "MaxWithdrawalChange",
            "type": "event"
        },
        {
            "anonymous": false,
            "inputs": [
                {
                    "indexed": false,
                    "name": "_maxDeposit",
                    "type": "uint256"
                }
            ],
            "name": "MaxDepositChange",
            "type": "event"
        },
        {
            "anonymous": false,
            "inputs": [],
            "name": "Pause",
            "type": "event"
        },
        {
            "anonymous": false,
            "inputs": [],
            "name": "Unpause",
            "type": "event"
        },
        {
            "constant": false,
            "inputs": [
                {
                    "name": "_amount",
                    "type": "uint256"
                }
            ],
            "name": "deposit",
            "outputs": [],
            "payable": false,
            "stateMutability": "nonpayable",
            "type": "function"
        },
        {
            "constant": true,
            "inputs": [],
            "name": "bankroll",
            "outputs": [
                {
                    "name": "",
                    "type": "uint256"
                }
            ],
            "payable": false,
            "stateMutability": "view",
            "type": "function"
        },
        {
            "constant": false,
            "inputs": [
                {
                    "name": "_player",
                    "type": "address"
                },
                {
                    "name": "_amount",
                    "type": "uint256"
                }
            ],
            "name": "setUserWithdrawal",
            "outputs": [],
            "payable": false,
            "stateMutability": "nonpayable",
            "type": "function"
        },
        {
            "constant": false,
            "inputs": [
                {
                    "name": "_players",
                    "type": "address[]"
                },
                {
                    "name": "_amount",
                    "type": "uint256[]"
                }
            ],
            "name": "setUserWithdrawalBatch",
            "outputs": [],
            "payable": false,
            "stateMutability": "nonpayable",
            "type": "function"
        },
        {
            "constant": false,
            "inputs": [
                {
                    "name": "_totalPlayerBalance",
                    "type": "uint256"
                },
                {
                    "name": "_amount",
                    "type": "uint256"
                }
            ],
            "name": "setOwnerWithdrawal",
            "outputs": [],
            "payable": false,
            "stateMutability": "nonpayable",
            "type": "function"
        },
        {
            "constant": false,
            "inputs": [
                {
                    "name": "_max",
                    "type": "uint256"
                }
            ],
            "name": "changeMaxDeposit",
            "outputs": [],
            "payable": false,
            "stateMutability": "nonpayable",
            "type": "function"
        },
        {
            "constant": false,
            "inputs": [
                {
                    "name": "_max",
                    "type": "uint256"
                }
            ],
            "name": "changeMaxWithdrawal",
            "outputs": [],
            "payable": false,
            "stateMutability": "nonpayable",
            "type": "function"
        },
        {
            "constant": false,
            "inputs": [
                {
                    "name": "_destination",
                    "type": "address"
                },
                {
                    "name": "_amount",
                    "type": "uint256"
                }
            ],
            "name": "ownerWithdrawalEther",
            "outputs": [],
            "payable": false,
            "stateMutability": "nonpayable",
            "type": "function"
        },
        {
            "constant": false,
            "inputs": [
                {
                    "name": "_destination",
                    "type": "address"
                },
                {
                    "name": "_amount",
                    "type": "uint256"
                }
            ],
            "name": "ownerWithdrawalTokens",
            "outputs": [],
            "payable": false,
            "stateMutability": "nonpayable",
            "type": "function"
        }
    ],
    "bytecode": "0x6080604052336000806101000a81548173ffffffffffffffffffffffffffffffffffffffff021916908373ffffffffffffffffffffffffffffffffffffffff16021790555060006001556000600555600060065534801561005f57600080fd5b50604051606080611e2c8339810180604052606081101561007f57600080fd5b8101908080519060200190929190805190602001909291908051906020019092919050505082600460006101000a81548173ffffffffffffffffffffffffffffffffffffffff021916908373ffffffffffffffffffffffffffffffffffffffff160217905550806000806101000a81548173ffffffffffffffffffffffffffffffffffffffff021916908373ffffffffffffffffffffffffffffffffffffffff1602179055506001600260008473ffffffffffffffffffffffffffffffffffffffff1673ffffffffffffffffffffffffffffffffffffffff16815260200190815260200160002060006101000a81548160ff0219169083151502179055506001600260008060009054906101000a900473ffffffffffffffffffffffffffffffffffffffff1673ffffffffffffffffffffffffffffffffffffffff1673ffffffffffffffffffffffffffffffffffffffff16815260200190815260200160002060006101000a81548160ff021916908315150217905550505050611c24806102086000396000f3fe608060405234801561001057600080fd5b50600436106101a95760003560e01c80638c0ff5b7116100f9578063b91d400111610097578063ef40b7ee11610071578063ef40b7ee14610683578063f5b235b114610751578063f9a4a75614610789578063fc0c546a146107d7576101a9565b8063b91d4001146105c5578063c832b338146105e3578063df58410a1461063f576101a9565b8063a9a8679b116100d3578063a9a8679b146104b3578063b0b2a575146104f7578063b6b55f251461053b578063b918161114610569576101a9565b80638c0ff5b7146104075780638da5cb5b14610425578063a6f9dae11461046f576101a9565b806340e1eaf2116101665780636083e59a116101405780636083e59a146103625780636e30418b146103805780637a9262a21461039e5780638456cb59146103fd576101a9565b806340e1eaf2146102e457806353fefd7d146103125780635c975abb14610340576101a9565b806303df234d146101ae5780630c657eb0146101f257806324861c0314610210578063275ba3441461025e5780632e0f2ce1146102ac5780633f4ba83a146102da575b600080fd5b6101f0600480360360208110156101c457600080fd5b81019080803573ffffffffffffffffffffffffffffffffffffffff169060200190929190505050610821565b005b6101fa6108d2565b6040518082815260200191505060405180910390f35b61025c6004803603604081101561022657600080fd5b81019080803573ffffffffffffffffffffffffffffffffffffffff169060200190929190803590602001909291905050506109be565b005b6102aa6004803603604081101561027457600080fd5b81019080803573ffffffffffffffffffffffffffffffffffffffff16906020019092919080359060200190929190505050610cb6565b005b6102d8600480360360208110156102c257600080fd5b8101908080359060200190929190505050610d57565b005b6102e2610db7565b005b610310600480360360208110156102fa57600080fd5b8101908080359060200190929190505050610e55565b005b61033e6004803603602081101561032857600080fd5b8101908080359060200190929190505050610f03565b005b610348610fb1565b604051808215151515815260200191505060405180910390f35b61036a610fc4565b6040518082815260200191505060405180910390f35b610388610fca565b6040518082815260200191505060405180910390f35b6103e0600480360360208110156103b457600080fd5b81019080803573ffffffffffffffffffffffffffffffffffffffff169060200190929190505050610fd0565b604051808381526020018281526020019250505060405180910390f35b610405610ff4565b005b61040f611093565b6040518082815260200191505060405180910390f35b61042d611099565b604051808273ffffffffffffffffffffffffffffffffffffffff1673ffffffffffffffffffffffffffffffffffffffff16815260200191505060405180910390f35b6104b16004803603602081101561048557600080fd5b81019080803573ffffffffffffffffffffffffffffffffffffffff1690602001909291905050506110be565b005b6104f5600480360360208110156104c957600080fd5b81019080803573ffffffffffffffffffffffffffffffffffffffff169060200190929190505050611157565b005b6105396004803603602081101561050d57600080fd5b81019080803573ffffffffffffffffffffffffffffffffffffffff169060200190929190505050611208565b005b6105676004803603602081101561055157600080fd5b81019080803590602001909291905050506112b9565b005b6105ab6004803603602081101561057f57600080fd5b81019080803573ffffffffffffffffffffffffffffffffffffffff16906020019092919050505061159b565b604051808215151515815260200191505060405180910390f35b6105cd6115bb565b6040518082815260200191505060405180910390f35b610625600480360360208110156105f957600080fd5b81019080803573ffffffffffffffffffffffffffffffffffffffff1690602001909291905050506115c1565b604051808215151515815260200191505060405180910390f35b6106816004803603602081101561065557600080fd5b81019080803573ffffffffffffffffffffffffffffffffffffffff1690602001909291905050506115e1565b005b61074f6004803603604081101561069957600080fd5b81019080803590602001906401000000008111156106b657600080fd5b8201836020820111156106c857600080fd5b803590602001918460208302840111640100000000831117156106ea57600080fd5b90919293919293908035906020019064010000000081111561070b57600080fd5b82018360208201111561071d57600080fd5b8035906020019184602083028401116401000000008311171561073f57600080fd5b9091929391929390505050611692565b005b6107876004803603604081101561076757600080fd5b81019080803590602001909291908035906020019092919050505061177e565b005b6107d56004803603604081101561079f57600080fd5b81019080803573ffffffffffffffffffffffffffffffffffffffff169060200190929190803590602001909291905050506119c2565b005b6107df611b9e565b604051808273ffffffffffffffffffffffffffffffffffffffff1673ffffffffffffffffffffffffffffffffffffffff16815260200191505060405180910390f35b6000809054906101000a900473ffffffffffffffffffffffffffffffffffffffff1673ffffffffffffffffffffffffffffffffffffffff163373ffffffffffffffffffffffffffffffffffffffff161461087757fe5b6001600360008373ffffffffffffffffffffffffffffffffffffffff1673ffffffffffffffffffffffffffffffffffffffff16815260200190815260200160002060006101000a81548160ff02191690831515021790555050565b60006109b9600460009054906101000a900473ffffffffffffffffffffffffffffffffffffffff1673ffffffffffffffffffffffffffffffffffffffff166370a08231306040518263ffffffff1660e01b8152600401808273ffffffffffffffffffffffffffffffffffffffff1673ffffffffffffffffffffffffffffffffffffffff16815260200191505060206040518083038186803b15801561097657600080fd5b505afa15801561098a573d6000803e3d6000fd5b505050506040513d60208110156109a057600080fd5b8101908080519060200190929190505050600754611bc4565b905090565b6000809054906101000a900473ffffffffffffffffffffffffffffffffffffffff1673ffffffffffffffffffffffffffffffffffffffff163373ffffffffffffffffffffffffffffffffffffffff1614610a1457fe5b60001515600060149054906101000a900460ff161515148015610a3e5750610a3a6108d2565b8111155b8015610a8c5750600860003373ffffffffffffffffffffffffffffffffffffffff1673ffffffffffffffffffffffffffffffffffffffff168152602001908152602001600020600001548111155b80610aaa575060011515600060149054906101000a900460ff161515145b610ab357600080fd5b600460009054906101000a900473ffffffffffffffffffffffffffffffffffffffff1673ffffffffffffffffffffffffffffffffffffffff1663a9059cbb83836040518363ffffffff1660e01b8152600401808373ffffffffffffffffffffffffffffffffffffffff1673ffffffffffffffffffffffffffffffffffffffff16815260200182815260200192505050602060405180830381600087803b158015610b5c57600080fd5b505af1158015610b70573d6000803e3d6000fd5b505050506040513d6020811015610b8657600080fd5b8101908080519060200190929190505050610ba057600080fd5b600060149054906101000a900460ff16610c4757610c00600860003373ffffffffffffffffffffffffffffffffffffffff1673ffffffffffffffffffffffffffffffffffffffff1681526020019081526020016000206000015482611bc4565b600860003373ffffffffffffffffffffffffffffffffffffffff1673ffffffffffffffffffffffffffffffffffffffff168152602001908152602001600020600001819055505b7f2f174ca282119315c59efaf21147aef438581dabdeb498198ae28964373dd8bc3082604051808373ffffffffffffffffffffffffffffffffffffffff1673ffffffffffffffffffffffffffffffffffffffff1681526020018281526020019250505060405180910390a15050565b6000809054906101000a900473ffffffffffffffffffffffffffffffffffffffff1673ffffffffffffffffffffffffffffffffffffffff163373ffffffffffffffffffffffffffffffffffffffff1614610d0c57fe5b8173ffffffffffffffffffffffffffffffffffffffff166108fc829081150290604051600060405180830381858888f19350505050158015610d52573d6000803e3d6000fd5b505050565b6000809054906101000a900473ffffffffffffffffffffffffffffffffffffffff1673ffffffffffffffffffffffffffffffffffffffff163373ffffffffffffffffffffffffffffffffffffffff1614610dad57fe5b8060018190555050565b6000809054906101000a900473ffffffffffffffffffffffffffffffffffffffff1673ffffffffffffffffffffffffffffffffffffffff163373ffffffffffffffffffffffffffffffffffffffff1614610e0d57fe5b60008060146101000a81548160ff0219169083151502179055507f7805862f689e2f13df9f062ff482ad3ad112aca9e0847911ed832e158c525b3360405160405180910390a1565b600060149054906101000a900460ff1615610e6c57fe5b6000809054906101000a900473ffffffffffffffffffffffffffffffffffffffff1673ffffffffffffffffffffffffffffffffffffffff163373ffffffffffffffffffffffffffffffffffffffff1614610ec257fe5b806005819055507f22806588c55fbd6351d4dad507eb99ddd3448630220e6515737f5a5b329e727a816040518082815260200191505060405180910390a150565b600060149054906101000a900460ff1615610f1a57fe5b6000809054906101000a900473ffffffffffffffffffffffffffffffffffffffff1673ffffffffffffffffffffffffffffffffffffffff163373ffffffffffffffffffffffffffffffffffffffff1614610f7057fe5b806006819055507f5dc3eb8a3363ea4392bceb15ba3cf7d3967930a6fef5c7704345c104f39b63a8816040518082815260200191505060405180910390a150565b600060149054906101000a900460ff1681565b60065481565b60075481565b60086020528060005260406000206000915090508060000154908060010154905082565b6000809054906101000a900473ffffffffffffffffffffffffffffffffffffffff1673ffffffffffffffffffffffffffffffffffffffff163373ffffffffffffffffffffffffffffffffffffffff161461104a57fe5b6001600060146101000a81548160ff0219169083151502179055507f6985a02210a168e66602d3235cb6db0e70f92b3ba4d376a33c0f3d9434bff62560405160405180910390a1565b60055481565b6000809054906101000a900473ffffffffffffffffffffffffffffffffffffffff1681565b6000809054906101000a900473ffffffffffffffffffffffffffffffffffffffff1673ffffffffffffffffffffffffffffffffffffffff163373ffffffffffffffffffffffffffffffffffffffff161461111457fe5b806000806101000a81548173ffffffffffffffffffffffffffffffffffffffff021916908373ffffffffffffffffffffffffffffffffffffffff16021790555050565b6000809054906101000a900473ffffffffffffffffffffffffffffffffffffffff1673ffffffffffffffffffffffffffffffffffffffff163373ffffffffffffffffffffffffffffffffffffffff16146111ad57fe5b6001600260008373ffffffffffffffffffffffffffffffffffffffff1673ffffffffffffffffffffffffffffffffffffffff16815260200190815260200160002060006101000a81548160ff02191690831515021790555050565b6000809054906101000a900473ffffffffffffffffffffffffffffffffffffffff1673ffffffffffffffffffffffffffffffffffffffff163373ffffffffffffffffffffffffffffffffffffffff161461125e57fe5b6000600260008373ffffffffffffffffffffffffffffffffffffffff1673ffffffffffffffffffffffffffffffffffffffff16815260200190815260200160002060006101000a81548160ff02191690831515021790555050565b600060149054906101000a900460ff16156112d057fe5b6000600460009054906101000a900473ffffffffffffffffffffffffffffffffffffffff1673ffffffffffffffffffffffffffffffffffffffff1663dd62ed3e33306040518363ffffffff1660e01b8152600401808373ffffffffffffffffffffffffffffffffffffffff1673ffffffffffffffffffffffffffffffffffffffff1681526020018273ffffffffffffffffffffffffffffffffffffffff1673ffffffffffffffffffffffffffffffffffffffff1681526020019250505060206040518083038186803b1580156113a557600080fd5b505afa1580156113b9573d6000803e3d6000fd5b505050506040513d60208110156113cf57600080fd5b81019080805190602001909291905050509050600082116113ef57600080fd5b808211156113fc57600080fd5b60065482111561140b57600080fd5b600460009054906101000a900473ffffffffffffffffffffffffffffffffffffffff1673ffffffffffffffffffffffffffffffffffffffff166323b872dd3330856040518463ffffffff1660e01b8152600401808473ffffffffffffffffffffffffffffffffffffffff1673ffffffffffffffffffffffffffffffffffffffff1681526020018373ffffffffffffffffffffffffffffffffffffffff1673ffffffffffffffffffffffffffffffffffffffff1681526020018281526020019350505050602060405180830381600087803b1580156114e857600080fd5b505af11580156114fc573d6000803e3d6000fd5b505050506040513d602081101561151257600080fd5b810190808051906020019092919050505061152c57600080fd5b7fe1fffcc4923d04b559f4d29a8bfc6cda04eb5b0d3c460751c2402c5c5cc9109c3382604051808373ffffffffffffffffffffffffffffffffffffffff1673ffffffffffffffffffffffffffffffffffffffff1681526020018281526020019250505060405180910390a15050565b60026020528060005260406000206000915054906101000a900460ff1681565b60015481565b60036020528060005260406000206000915054906101000a900460ff1681565b6000809054906101000a900473ffffffffffffffffffffffffffffffffffffffff1673ffffffffffffffffffffffffffffffffffffffff163373ffffffffffffffffffffffffffffffffffffffff161461163757fe5b6000600360008373ffffffffffffffffffffffffffffffffffffffff1673ffffffffffffffffffffffffffffffffffffffff16815260200190815260200160002060006101000a81548160ff02191690831515021790555050565b600060149054906101000a900460ff16156116a957fe5b60011515600260003373ffffffffffffffffffffffffffffffffffffffff1673ffffffffffffffffffffffffffffffffffffffff16815260200190815260200160002060009054906101000a900460ff1615151461170357fe5b81819050848490501461171557600080fd5b60008090505b848490508110156117775761176a85858381811061173557fe5b9050602002013573ffffffffffffffffffffffffffffffffffffffff1684848481811061175e57fe5b905060200201356119c2565b808060010191505061171b565b5050505050565b600060149054906101000a900460ff161561179557fe5b60011515600360003373ffffffffffffffffffffffffffffffffffffffff1673ffffffffffffffffffffffffffffffffffffffff16815260200190815260200160002060009054906101000a900460ff161515146117ef57fe5b81600781905550611863600860008060009054906101000a900473ffffffffffffffffffffffffffffffffffffffff1673ffffffffffffffffffffffffffffffffffffffff1673ffffffffffffffffffffffffffffffffffffffff1681526020019081526020016000206000015482611bde565b600860008060009054906101000a900473ffffffffffffffffffffffffffffffffffffffff1673ffffffffffffffffffffffffffffffffffffffff1673ffffffffffffffffffffffffffffffffffffffff1681526020019081526020016000206000018190555042600860008060009054906101000a900473ffffffffffffffffffffffffffffffffffffffff1673ffffffffffffffffffffffffffffffffffffffff1673ffffffffffffffffffffffffffffffffffffffff168152602001908152602001600020600101819055507f38ad611b8ae457b9126d4917f4ded0b60a8fbbfdd0dd4b04fc9469688b44934f6000809054906101000a900473ffffffffffffffffffffffffffffffffffffffff1682604051808373ffffffffffffffffffffffffffffffffffffffff1673ffffffffffffffffffffffffffffffffffffffff1681526020018281526020019250505060405180910390a15050565b600060149054906101000a900460ff16156119d957fe5b60011515600260003373ffffffffffffffffffffffffffffffffffffffff1673ffffffffffffffffffffffffffffffffffffffff16815260200190815260200160002060009054906101000a900460ff16151514611a3357fe5b600554811115611a4257600080fd5b600460009054906101000a900473ffffffffffffffffffffffffffffffffffffffff1673ffffffffffffffffffffffffffffffffffffffff1663a9059cbb83836040518363ffffffff1660e01b8152600401808373ffffffffffffffffffffffffffffffffffffffff1673ffffffffffffffffffffffffffffffffffffffff16815260200182815260200192505050602060405180830381600087803b158015611aeb57600080fd5b505af1158015611aff573d6000803e3d6000fd5b505050506040513d6020811015611b1557600080fd5b8101908080519060200190929190505050611b2f57600080fd5b7f2f174ca282119315c59efaf21147aef438581dabdeb498198ae28964373dd8bc8282604051808373ffffffffffffffffffffffffffffffffffffffff1673ffffffffffffffffffffffffffffffffffffffff1681526020018281526020019250505060405180910390a15050565b600460009054906101000a900473ffffffffffffffffffffffffffffffffffffffff1681565b6000828284039150811115611bd857600080fd5b92915050565b6000828284019150811015611bf257600080fd5b9291505056fea165627a7a72305820b3915e6cc47c64fb92a370dcad001463eb8427c2d195a5488907d1ea11486b8b0029",
    "source": "pragma solidity 0.5.8; \n\n/**\n  * @title DSMath\n  * @author MakerDAO\n  * @notice Safe math contracts from Maker.\n  */\ncontract DSMath {\n    function add(uint x, uint y) internal pure returns (uint z) {\n        require((z = x + y) >= x);\n    }\n    function sub(uint x, uint y) internal pure returns (uint z) {\n        require((z = x - y) <= x);\n    }\n    function mul(uint x, uint y) internal pure returns (uint z) {\n        require(y == 0 || (z = x * y) / y == x);\n    }\n\n    function min(uint x, uint y) internal pure returns (uint z) {\n        return x <= y ? x : y;\n    }\n    function max(uint x, uint y) internal pure returns (uint z) {\n        return x >= y ? x : y;\n    }\n    function imin(int x, int y) internal pure returns (int z) {\n        return x <= y ? x : y;\n    }\n    function imax(int x, int y) internal pure returns (int z) {\n        return x >= y ? x : y;\n    }\n}\n\n/**\n  * @title Owned\n  * @author BetProtocol\n  * @notice Basic owner properties.\n  */\ncontract Owned {\n    address public owner = msg.sender;\n\n    modifier isOwner {\n        assert(msg.sender == owner); _;\n    }\n\n    function changeOwner(address account) external isOwner {\n        owner = account;\n    }\n}\n\n/**\n  * @title Authorized\n  * @author BetProtocol\n  * @notice Allows a second tier of authrozed accounts. In this case will be the server keys.\n  * Only the Owner multisig can authorize new accounts.\n  */\ncontract Authorized is Owned {\n    mapping(address => bool) public authorized;\n    mapping(address => bool) public croupier;\n\n    modifier isAuthorized {\n        assert(authorized[msg.sender] == true); _;\n    }\n\n    modifier isCroupier{\n        assert(croupier[msg.sender] == true); _;\n    }\n\n    function authorizeCroupier(address account) external isOwner {\n        croupier[account] = true;\n    }\n\n    function unauthorizeCroupier(address account) external isOwner {\n        croupier[account] = false;\n    }\n\n    function authorizeAccount(address account) external isOwner {\n        authorized[account] = true;\n    }\n\n    function unauthorizeAccount(address account) external isOwner {\n        authorized[account] = false;\n    }\n}\n\n/**\n  * @title TimeRelease\n  * @author BetProtocol\n  * @notice Controls the generic release time for authorized transactions.\n  */\ncontract TimeRelease is Owned {\n    uint256 public releaseTime = 0;\n    \n    function changeReleaseTime(uint256 time) external isOwner {\n        releaseTime = time;\n    }\n}\n\n/**\n  * @title Pausable\n  * @author BetProtocol\n  * @notice Primitive events, methods, properties for a contract which can be\n        paused by a single owner.\n  */\ncontract Pausable is Owned {\n    event Pause();\n    event Unpause();\n\n    bool public paused;\n\n    modifier pausable {\n        assert(!paused); _;\n    }\n\n    function pause() external isOwner {\n        paused = true;\n\n        emit Pause();\n    }\n\n    function unpause() external isOwner {\n        paused = false;\n\n        emit Unpause();\n    }\n}\n\n/**\n  * @title ERC20Events\n  * @author EIP20 Authors\n  * @notice Primitive events for the ERC20 event specification.\n  */\ncontract ERC20Events {\n    event Transfer(address indexed from, address indexed to, uint256 tokens);\n    event Approval(address indexed tokenOwner, address indexed spender, uint256 tokens);\n}\n\n/**\n  * @title ERC20\n  * @author EIP/ERC20 Authors\n  * @author BokkyPooBah / Bok Consulting Pty Ltd 2018.\n  * @notice The ERC20 standard contract interface.\n  */\ncontract ERC20 is ERC20Events {\n    function totalSupply() external view returns (uint);\n    function balanceOf(address tokenOwner) public view returns (uint);\n    function allowance(address tokenOwner, address spender) external view returns (uint);\n\n    function approve(address spender, uint amount) public returns (bool);\n    function transfer(address to, uint amount) external returns (bool);\n    function transferFrom(\n        address from, address to, uint amount\n    ) public returns (bool);\n}\n\n/**\n  * @title SingleTokenBank\n  * @author EIP/ERC20 Authors\n  * @author BokkyPooBah / Bok Consulting Pty Ltd 2018.\n  * @notice The ERC20 standard contract interface.\n  */\ncontract SingleTokenBank is Owned, Pausable, TimeRelease, Authorized, DSMath {\n    struct Withdrawal {\n        uint256 amount;\n        uint256 timestamp;\n    }\n\n    ERC20 public token;\n    uint256 public maxWithdrawal = 0;\n    uint256 public maxDeposit = 0;\n    uint256 public totalPlayerBalance;\n    mapping(address => Withdrawal) public withdrawals;\n\n\t// informs listeners how many tokens were deposited for a player\n\tevent Deposit(address _player, uint256 _amount);\n\n\t// informs listeners how many tokens were withdrawn from the player to the receiver address\n\tevent WithdrawalEvent(address _player, uint256 _amount);\n\t\n\t// set withdrawal\n\tevent WithdrawalSet(address _player, uint256 _amount);\n\t\t\n\t// max withdrawal changed\n\tevent MaxWithdrawalChange(uint256 _maxWithdrawal);\n\t\n\t// max withdrawal changed\n\tevent MaxDepositChange(uint256 _maxDeposit);\n\n\tconstructor(address _token, address _authorized, address _owner) public {\n\t   token = ERC20(_token);\n\t   owner = _owner; // multisig\n\t   authorized[_authorized] = true; // your server address\n\t   authorized[owner] = true; // also multisig\n\t}\n\n\tfunction deposit(uint256 _amount) external pausable {\n        uint256 allowance = token.allowance(msg.sender, address(this));\n        require(_amount > 0);\n        require(_amount <= allowance);\n        require(_amount <= maxDeposit);\n        require(token.transferFrom(msg.sender, address(this), _amount));\n        emit Deposit(msg.sender, allowance);\n\t}\n\n\t/**\n\t * returns the current bankroll in tokens with 0 decimals\n\t **/\n\tfunction bankroll() view public returns(uint) {\n\t\treturn sub(token.balanceOf(address(this)), totalPlayerBalance);\n\t}\n\n    // set a withdrawal amount for a player\n\tfunction setUserWithdrawal(address _player, uint256 _amount) public pausable isAuthorized {\n\t    require(_amount <= maxWithdrawal); // check max withdrawal\n       \trequire(token.transfer(_player, _amount));\n        emit WithdrawalEvent(_player, _amount);\n\t}\n\n    function setUserWithdrawalBatch(address[] calldata _players, uint256[] calldata _amount) external pausable isAuthorized {\n        require(_players.length == _amount.length);\n        for(uint i = 0; i < _players.length; i++) {\n            setUserWithdrawal(_players[i], _amount[i]);\n        }\n    }\n\n    // set a withdrawal amount for the owner\n\tfunction setOwnerWithdrawal(uint256 _totalPlayerBalance, uint256 _amount) external pausable isCroupier {\n        totalPlayerBalance = _totalPlayerBalance;\n        withdrawals[owner].amount = add(withdrawals[owner].amount, _amount);\n        withdrawals[owner].timestamp = block.timestamp;\n        emit WithdrawalSet(owner, _amount);\n\t}\n\n\tfunction changeMaxDeposit(uint256 _max) external pausable isOwner {\n\t    maxDeposit = _max;\n\t    emit MaxDepositChange(_max);\n\t}\n\n\tfunction changeMaxWithdrawal(uint256 _max) external pausable isOwner {\n\t    maxWithdrawal = _max;\n\t    emit MaxWithdrawalChange(_max);\n\t}\n\n\tfunction ownerWithdrawalEther(address payable _destination, uint256 _amount) external isOwner {\n\t\t_destination.transfer(_amount);\n\t}\n\n\tfunction ownerWithdrawalTokens(address _destination, uint256 _amount) external isOwner {\n\t    require((paused == false) && (_amount <= bankroll()) && (_amount <= withdrawals[msg.sender].amount) // only house winnings\n\t        || (paused == true)); // or take entire balance if paused..\n\t\trequire(token.transfer(_destination, _amount));\n        if(!paused){\n\t\t    withdrawals[msg.sender].amount = sub(withdrawals[msg.sender].amount, _amount);\n        }\n\t\temit WithdrawalEvent(address(this), _amount);\n\t}\n}",
    "sourcePath": "/Users/ruipedro/Desktop/BetProtocol/ethereum-tools/contracts/SingleTokenBank.sol",
    "compiler": {
        "name": "solc",
        "version": "0.5.8+commit.23d335f2.Emscripten.clang"
    },
    "schemaVersion": "3.0.11",
    "updatedAt": "2019-11-08T13:44:58.028Z",
    "devdoc": {
        "author": "EIP/ERC20 AuthorsBokkyPooBah / Bok Consulting Pty Ltd 2018.",
        "methods": {},
        "title": "SingleTokenBank"
    },
    "userdoc": {
        "methods": {
            "bankroll()": {
                "notice": "returns the current bankroll in tokens with 0 decimals*"
            }
        },
        "notice": "The ERC20 standard contract interface."
    }
}