{
    "contractName": "SingleTokenBank",
    "abi": [
        {
            "constant": false,
            "inputs": [
                {
                    "name": "account",
                    "type": "address"
                }
            ],
            "name": "authorizeCroupier",
            "outputs": [],
            "payable": false,
            "stateMutability": "nonpayable",
            "type": "function"
        },
        {
            "constant": false,
            "inputs": [
                {
                    "name": "time",
                    "type": "uint256"
                }
            ],
            "name": "changeReleaseTime",
            "outputs": [],
            "payable": false,
            "stateMutability": "nonpayable",
            "type": "function"
        },
        {
            "constant": false,
            "inputs": [],
            "name": "unpause",
            "outputs": [],
            "payable": false,
            "stateMutability": "nonpayable",
            "type": "function"
        },
        {
            "constant": true,
            "inputs": [],
            "name": "paused",
            "outputs": [
                {
                    "name": "",
                    "type": "bool"
                }
            ],
            "payable": false,
            "stateMutability": "view",
            "type": "function"
        },
        {
            "constant": true,
            "inputs": [],
            "name": "totalPlayerBalance",
            "outputs": [
                {
                    "name": "",
                    "type": "uint256"
                }
            ],
            "payable": false,
            "stateMutability": "view",
            "type": "function"
        },
        {
            "constant": true,
            "inputs": [
                {
                    "name": "",
                    "type": "address"
                }
            ],
            "name": "withdrawals",
            "outputs": [
                {
                    "name": "amount",
                    "type": "uint256"
                },
                {
                    "name": "timestamp",
                    "type": "uint256"
                }
            ],
            "payable": false,
            "stateMutability": "view",
            "type": "function"
        },
        {
            "constant": false,
            "inputs": [],
            "name": "pause",
            "outputs": [],
            "payable": false,
            "stateMutability": "nonpayable",
            "type": "function"
        },
        {
            "constant": true,
            "inputs": [],
            "name": "owner",
            "outputs": [
                {
                    "name": "",
                    "type": "address"
                }
            ],
            "payable": false,
            "stateMutability": "view",
            "type": "function"
        },
        {
            "constant": false,
            "inputs": [
                {
                    "name": "account",
                    "type": "address"
                }
            ],
            "name": "changeOwner",
            "outputs": [],
            "payable": false,
            "stateMutability": "nonpayable",
            "type": "function"
        },
        {
            "constant": false,
            "inputs": [
                {
                    "name": "account",
                    "type": "address"
                }
            ],
            "name": "authorizeAccount",
            "outputs": [],
            "payable": false,
            "stateMutability": "nonpayable",
            "type": "function"
        },
        {
            "constant": false,
            "inputs": [
                {
                    "name": "account",
                    "type": "address"
                }
            ],
            "name": "unauthorizeAccount",
            "outputs": [],
            "payable": false,
            "stateMutability": "nonpayable",
            "type": "function"
        },
        {
            "constant": true,
            "inputs": [
                {
                    "name": "",
                    "type": "address"
                }
            ],
            "name": "authorized",
            "outputs": [
                {
                    "name": "",
                    "type": "bool"
                }
            ],
            "payable": false,
            "stateMutability": "view",
            "type": "function"
        },
        {
            "constant": true,
            "inputs": [],
            "name": "releaseTime",
            "outputs": [
                {
                    "name": "",
                    "type": "uint256"
                }
            ],
            "payable": false,
            "stateMutability": "view",
            "type": "function"
        },
        {
            "constant": true,
            "inputs": [
                {
                    "name": "",
                    "type": "address"
                }
            ],
            "name": "croupier",
            "outputs": [
                {
                    "name": "",
                    "type": "bool"
                }
            ],
            "payable": false,
            "stateMutability": "view",
            "type": "function"
        },
        {
            "constant": false,
            "inputs": [
                {
                    "name": "account",
                    "type": "address"
                }
            ],
            "name": "unauthorizeCroupier",
            "outputs": [],
            "payable": false,
            "stateMutability": "nonpayable",
            "type": "function"
        },
        {
            "constant": true,
            "inputs": [],
            "name": "token",
            "outputs": [
                {
                    "name": "",
                    "type": "address"
                }
            ],
            "payable": false,
            "stateMutability": "view",
            "type": "function"
        },
        {
            "inputs": [
                {
                    "name": "_token",
                    "type": "address"
                },
                {
                    "name": "_authorized",
                    "type": "address"
                },
                {
                    "name": "_owner",
                    "type": "address"
                }
            ],
            "payable": false,
            "stateMutability": "nonpayable",
            "type": "constructor"
        },
        {
            "anonymous": false,
            "inputs": [
                {
                    "indexed": false,
                    "name": "_player",
                    "type": "address"
                },
                {
                    "indexed": false,
                    "name": "_amount",
                    "type": "uint256"
                }
            ],
            "name": "Deposit",
            "type": "event"
        },
        {
            "anonymous": false,
            "inputs": [
                {
                    "indexed": false,
                    "name": "_player",
                    "type": "address"
                },
                {
                    "indexed": false,
                    "name": "_amount",
                    "type": "uint256"
                }
            ],
            "name": "WithdrawalEvent",
            "type": "event"
        },
        {
            "anonymous": false,
            "inputs": [
                {
                    "indexed": false,
                    "name": "_player",
                    "type": "address"
                },
                {
                    "indexed": false,
                    "name": "_amount",
                    "type": "uint256"
                }
            ],
            "name": "WithdrawalSet",
            "type": "event"
        },
        {
            "anonymous": false,
            "inputs": [],
            "name": "Pause",
            "type": "event"
        },
        {
            "anonymous": false,
            "inputs": [],
            "name": "Unpause",
            "type": "event"
        },
        {
            "constant": false,
            "inputs": [
                {
                    "name": "_amount",
                    "type": "uint256"
                }
            ],
            "name": "deposit",
            "outputs": [],
            "payable": false,
            "stateMutability": "nonpayable",
            "type": "function"
        },
        {
            "constant": true,
            "inputs": [],
            "name": "bankroll",
            "outputs": [
                {
                    "name": "",
                    "type": "uint256"
                }
            ],
            "payable": false,
            "stateMutability": "view",
            "type": "function"
        },
        {
            "constant": false,
            "inputs": [
                {
                    "name": "_player",
                    "type": "address"
                },
                {
                    "name": "_amount",
                    "type": "uint256"
                }
            ],
            "name": "setUserWithdrawal",
            "outputs": [],
            "payable": false,
            "stateMutability": "nonpayable",
            "type": "function"
        },
        {
            "constant": false,
            "inputs": [
                {
                    "name": "_players",
                    "type": "address[]"
                },
                {
                    "name": "_amount",
                    "type": "uint256[]"
                }
            ],
            "name": "setUserWithdrawalBatch",
            "outputs": [],
            "payable": false,
            "stateMutability": "nonpayable",
            "type": "function"
        },
        {
            "constant": false,
            "inputs": [
                {
                    "name": "_totalPlayerBalance",
                    "type": "uint256"
                },
                {
                    "name": "_amount",
                    "type": "uint256"
                }
            ],
            "name": "setOwnerWithdrawal",
            "outputs": [],
            "payable": false,
            "stateMutability": "nonpayable",
            "type": "function"
        },
        {
            "constant": false,
            "inputs": [
                {
                    "name": "_token",
                    "type": "address"
                }
            ],
            "name": "changeSingleTokenContract",
            "outputs": [],
            "payable": false,
            "stateMutability": "nonpayable",
            "type": "function"
        },
        {
            "constant": false,
            "inputs": [
                {
                    "name": "_newContract",
                    "type": "address"
                }
            ],
            "name": "updateToNewContract",
            "outputs": [],
            "payable": false,
            "stateMutability": "nonpayable",
            "type": "function"
        },
        {
            "constant": false,
            "inputs": [
                {
                    "name": "_destination",
                    "type": "address"
                },
                {
                    "name": "_amount",
                    "type": "uint256"
                }
            ],
            "name": "ownerWithdrawalEther",
            "outputs": [],
            "payable": false,
            "stateMutability": "nonpayable",
            "type": "function"
        },
        {
            "constant": false,
            "inputs": [
                {
                    "name": "_tokenAddress",
                    "type": "address"
                }
            ],
            "name": "withdrawAccidentalSentTokens",
            "outputs": [],
            "payable": false,
            "stateMutability": "nonpayable",
            "type": "function"
        },
        {
            "constant": false,
            "inputs": [
                {
                    "name": "_destination",
                    "type": "address"
                },
                {
                    "name": "_amount",
                    "type": "uint256"
                }
            ],
            "name": "ownerWithdrawalTokens",
            "outputs": [],
            "payable": false,
            "stateMutability": "nonpayable",
            "type": "function"
        }
    ],
    "bytecode": "0x6080604052336000806101000a81548173ffffffffffffffffffffffffffffffffffffffff021916908373ffffffffffffffffffffffffffffffffffffffff160217905550600060015534801561005557600080fd5b506040516060806121d38339810180604052606081101561007557600080fd5b8101908080519060200190929190805190602001909291908051906020019092919050505082600460006101000a81548173ffffffffffffffffffffffffffffffffffffffff021916908373ffffffffffffffffffffffffffffffffffffffff160217905550806000806101000a81548173ffffffffffffffffffffffffffffffffffffffff021916908373ffffffffffffffffffffffffffffffffffffffff1602179055506001600260008473ffffffffffffffffffffffffffffffffffffffff1673ffffffffffffffffffffffffffffffffffffffff16815260200190815260200160002060006101000a81548160ff0219169083151502179055506001600260008060009054906101000a900473ffffffffffffffffffffffffffffffffffffffff1673ffffffffffffffffffffffffffffffffffffffff1673ffffffffffffffffffffffffffffffffffffffff16815260200190815260200160002060006101000a81548160ff021916908315150217905550505050611fd5806101fe6000396000f3fe608060405234801561001057600080fd5b506004361061018e5760003560e01c8063a6f9dae1116100de578063c74058be11610097578063ef40b7ee11610071578063ef40b7ee1461069c578063f5b235b11461076a578063f9a4a756146107a2578063fc0c546a146107f05761018e565b8063c74058be146105b8578063c832b338146105fc578063df58410a146106585761018e565b8063a6f9dae114610444578063a9a8679b14610488578063b0b2a575146104cc578063b6b55f2514610510578063b91816111461053e578063b91d40011461059a5761018e565b8063392349481161014b5780636e30418b116101255780636e30418b146103735780637a9262a2146103915780638456cb59146103f05780638da5cb5b146103fa5761018e565b806339234948146103035780633f4ba83a146103475780635c975abb146103515761018e565b806303df234d146101935780630c657eb0146101d757806324861c03146101f5578063275ba344146102435780632b88bf28146102915780632e0f2ce1146102d5575b600080fd5b6101d5600480360360208110156101a957600080fd5b81019080803573ffffffffffffffffffffffffffffffffffffffff16906020019092919050505061083a565b005b6101df6108eb565b6040518082815260200191505060405180910390f35b6102416004803603604081101561020b57600080fd5b81019080803573ffffffffffffffffffffffffffffffffffffffff169060200190929190803590602001909291905050506109d7565b005b61028f6004803603604081101561025957600080fd5b81019080803573ffffffffffffffffffffffffffffffffffffffff16906020019092919080359060200190929190505050610ccf565b005b6102d3600480360360208110156102a757600080fd5b81019080803573ffffffffffffffffffffffffffffffffffffffff169060200190929190505050610d70565b005b610301600480360360208110156102eb57600080fd5b8101908080359060200190929190505050610e0a565b005b6103456004803603602081101561031957600080fd5b81019080803573ffffffffffffffffffffffffffffffffffffffff169060200190929190505050610e6a565b005b61034f6110c7565b005b610359611165565b604051808215151515815260200191505060405180910390f35b61037b611178565b6040518082815260200191505060405180910390f35b6103d3600480360360208110156103a757600080fd5b81019080803573ffffffffffffffffffffffffffffffffffffffff16906020019092919050505061117e565b604051808381526020018281526020019250505060405180910390f35b6103f86111a2565b005b610402611241565b604051808273ffffffffffffffffffffffffffffffffffffffff1673ffffffffffffffffffffffffffffffffffffffff16815260200191505060405180910390f35b6104866004803603602081101561045a57600080fd5b81019080803573ffffffffffffffffffffffffffffffffffffffff169060200190929190505050611266565b005b6104ca6004803603602081101561049e57600080fd5b81019080803573ffffffffffffffffffffffffffffffffffffffff1690602001909291905050506112ff565b005b61050e600480360360208110156104e257600080fd5b81019080803573ffffffffffffffffffffffffffffffffffffffff1690602001909291905050506113b0565b005b61053c6004803603602081101561052657600080fd5b8101908080359060200190929190505050611461565b005b6105806004803603602081101561055457600080fd5b81019080803573ffffffffffffffffffffffffffffffffffffffff169060200190929190505050611734565b604051808215151515815260200191505060405180910390f35b6105a2611754565b6040518082815260200191505060405180910390f35b6105fa600480360360208110156105ce57600080fd5b81019080803573ffffffffffffffffffffffffffffffffffffffff16906020019092919050505061175a565b005b61063e6004803603602081101561061257600080fd5b81019080803573ffffffffffffffffffffffffffffffffffffffff169060200190929190505050611981565b604051808215151515815260200191505060405180910390f35b61069a6004803603602081101561066e57600080fd5b81019080803573ffffffffffffffffffffffffffffffffffffffff1690602001909291905050506119a1565b005b610768600480360360408110156106b257600080fd5b81019080803590602001906401000000008111156106cf57600080fd5b8201836020820111156106e157600080fd5b8035906020019184602083028401116401000000008311171561070357600080fd5b90919293919293908035906020019064010000000081111561072457600080fd5b82018360208201111561073657600080fd5b8035906020019184602083028401116401000000008311171561075857600080fd5b9091929391929390505050611a52565b005b6107a06004803603604081101561078057600080fd5b810190808035906020019092919080359060200190929190505050611b3e565b005b6107ee600480360360408110156107b857600080fd5b81019080803573ffffffffffffffffffffffffffffffffffffffff16906020019092919080359060200190929190505050611d82565b005b6107f8611f4f565b604051808273ffffffffffffffffffffffffffffffffffffffff1673ffffffffffffffffffffffffffffffffffffffff16815260200191505060405180910390f35b6000809054906101000a900473ffffffffffffffffffffffffffffffffffffffff1673ffffffffffffffffffffffffffffffffffffffff163373ffffffffffffffffffffffffffffffffffffffff161461089057fe5b6001600360008373ffffffffffffffffffffffffffffffffffffffff1673ffffffffffffffffffffffffffffffffffffffff16815260200190815260200160002060006101000a81548160ff02191690831515021790555050565b60006109d2600460009054906101000a900473ffffffffffffffffffffffffffffffffffffffff1673ffffffffffffffffffffffffffffffffffffffff166370a08231306040518263ffffffff1660e01b8152600401808273ffffffffffffffffffffffffffffffffffffffff1673ffffffffffffffffffffffffffffffffffffffff16815260200191505060206040518083038186803b15801561098f57600080fd5b505afa1580156109a3573d6000803e3d6000fd5b505050506040513d60208110156109b957600080fd5b8101908080519060200190929190505050600554611f75565b905090565b6000809054906101000a900473ffffffffffffffffffffffffffffffffffffffff1673ffffffffffffffffffffffffffffffffffffffff163373ffffffffffffffffffffffffffffffffffffffff1614610a2d57fe5b60001515600060149054906101000a900460ff161515148015610a575750610a536108eb565b8111155b8015610aa55750600660003373ffffffffffffffffffffffffffffffffffffffff1673ffffffffffffffffffffffffffffffffffffffff168152602001908152602001600020600001548111155b80610ac3575060011515600060149054906101000a900460ff161515145b610acc57600080fd5b600460009054906101000a900473ffffffffffffffffffffffffffffffffffffffff1673ffffffffffffffffffffffffffffffffffffffff1663a9059cbb83836040518363ffffffff1660e01b8152600401808373ffffffffffffffffffffffffffffffffffffffff1673ffffffffffffffffffffffffffffffffffffffff16815260200182815260200192505050602060405180830381600087803b158015610b7557600080fd5b505af1158015610b89573d6000803e3d6000fd5b505050506040513d6020811015610b9f57600080fd5b8101908080519060200190929190505050610bb957600080fd5b600060149054906101000a900460ff16610c6057610c19600660003373ffffffffffffffffffffffffffffffffffffffff1673ffffffffffffffffffffffffffffffffffffffff1681526020019081526020016000206000015482611f75565b600660003373ffffffffffffffffffffffffffffffffffffffff1673ffffffffffffffffffffffffffffffffffffffff168152602001908152602001600020600001819055505b7f2f174ca282119315c59efaf21147aef438581dabdeb498198ae28964373dd8bc3082604051808373ffffffffffffffffffffffffffffffffffffffff1673ffffffffffffffffffffffffffffffffffffffff1681526020018281526020019250505060405180910390a15050565b6000809054906101000a900473ffffffffffffffffffffffffffffffffffffffff1673ffffffffffffffffffffffffffffffffffffffff163373ffffffffffffffffffffffffffffffffffffffff1614610d2557fe5b8173ffffffffffffffffffffffffffffffffffffffff166108fc829081150290604051600060405180830381858888f19350505050158015610d6b573d6000803e3d6000fd5b505050565b6000809054906101000a900473ffffffffffffffffffffffffffffffffffffffff1673ffffffffffffffffffffffffffffffffffffffff163373ffffffffffffffffffffffffffffffffffffffff1614610dc657fe5b80600460006101000a81548173ffffffffffffffffffffffffffffffffffffffff021916908373ffffffffffffffffffffffffffffffffffffffff16021790555050565b6000809054906101000a900473ffffffffffffffffffffffffffffffffffffffff1673ffffffffffffffffffffffffffffffffffffffff163373ffffffffffffffffffffffffffffffffffffffff1614610e6057fe5b8060018190555050565b6000809054906101000a900473ffffffffffffffffffffffffffffffffffffffff1673ffffffffffffffffffffffffffffffffffffffff163373ffffffffffffffffffffffffffffffffffffffff1614610ec057fe5b6000819050600460009054906101000a900473ffffffffffffffffffffffffffffffffffffffff1673ffffffffffffffffffffffffffffffffffffffff168173ffffffffffffffffffffffffffffffffffffffff161415610f2057600080fd5b8073ffffffffffffffffffffffffffffffffffffffff1663a9059cbb6000809054906101000a900473ffffffffffffffffffffffffffffffffffffffff168373ffffffffffffffffffffffffffffffffffffffff166370a08231306040518263ffffffff1660e01b8152600401808273ffffffffffffffffffffffffffffffffffffffff1673ffffffffffffffffffffffffffffffffffffffff16815260200191505060206040518083038186803b158015610fdb57600080fd5b505afa158015610fef573d6000803e3d6000fd5b505050506040513d602081101561100557600080fd5b81019080805190602001909291905050506040518363ffffffff1660e01b8152600401808373ffffffffffffffffffffffffffffffffffffffff1673ffffffffffffffffffffffffffffffffffffffff16815260200182815260200192505050602060405180830381600087803b15801561107f57600080fd5b505af1158015611093573d6000803e3d6000fd5b505050506040513d60208110156110a957600080fd5b81019080805190602001909291905050506110c357600080fd5b5050565b6000809054906101000a900473ffffffffffffffffffffffffffffffffffffffff1673ffffffffffffffffffffffffffffffffffffffff163373ffffffffffffffffffffffffffffffffffffffff161461111d57fe5b60008060146101000a81548160ff0219169083151502179055507f7805862f689e2f13df9f062ff482ad3ad112aca9e0847911ed832e158c525b3360405160405180910390a1565b600060149054906101000a900460ff1681565b60055481565b60066020528060005260406000206000915090508060000154908060010154905082565b6000809054906101000a900473ffffffffffffffffffffffffffffffffffffffff1673ffffffffffffffffffffffffffffffffffffffff163373ffffffffffffffffffffffffffffffffffffffff16146111f857fe5b6001600060146101000a81548160ff0219169083151502179055507f6985a02210a168e66602d3235cb6db0e70f92b3ba4d376a33c0f3d9434bff62560405160405180910390a1565b6000809054906101000a900473ffffffffffffffffffffffffffffffffffffffff1681565b6000809054906101000a900473ffffffffffffffffffffffffffffffffffffffff1673ffffffffffffffffffffffffffffffffffffffff163373ffffffffffffffffffffffffffffffffffffffff16146112bc57fe5b806000806101000a81548173ffffffffffffffffffffffffffffffffffffffff021916908373ffffffffffffffffffffffffffffffffffffffff16021790555050565b6000809054906101000a900473ffffffffffffffffffffffffffffffffffffffff1673ffffffffffffffffffffffffffffffffffffffff163373ffffffffffffffffffffffffffffffffffffffff161461135557fe5b6001600260008373ffffffffffffffffffffffffffffffffffffffff1673ffffffffffffffffffffffffffffffffffffffff16815260200190815260200160002060006101000a81548160ff02191690831515021790555050565b6000809054906101000a900473ffffffffffffffffffffffffffffffffffffffff1673ffffffffffffffffffffffffffffffffffffffff163373ffffffffffffffffffffffffffffffffffffffff161461140657fe5b6000600260008373ffffffffffffffffffffffffffffffffffffffff1673ffffffffffffffffffffffffffffffffffffffff16815260200190815260200160002060006101000a81548160ff02191690831515021790555050565b600060149054906101000a900460ff161561147857fe5b6000600460009054906101000a900473ffffffffffffffffffffffffffffffffffffffff1673ffffffffffffffffffffffffffffffffffffffff1663dd62ed3e33306040518363ffffffff1660e01b8152600401808373ffffffffffffffffffffffffffffffffffffffff1673ffffffffffffffffffffffffffffffffffffffff1681526020018273ffffffffffffffffffffffffffffffffffffffff1673ffffffffffffffffffffffffffffffffffffffff1681526020019250505060206040518083038186803b15801561154d57600080fd5b505afa158015611561573d6000803e3d6000fd5b505050506040513d602081101561157757600080fd5b810190808051906020019092919050505090506000821161159757600080fd5b808211156115a457600080fd5b600460009054906101000a900473ffffffffffffffffffffffffffffffffffffffff1673ffffffffffffffffffffffffffffffffffffffff166323b872dd3330856040518463ffffffff1660e01b8152600401808473ffffffffffffffffffffffffffffffffffffffff1673ffffffffffffffffffffffffffffffffffffffff1681526020018373ffffffffffffffffffffffffffffffffffffffff1673ffffffffffffffffffffffffffffffffffffffff1681526020018281526020019350505050602060405180830381600087803b15801561168157600080fd5b505af1158015611695573d6000803e3d6000fd5b505050506040513d60208110156116ab57600080fd5b81019080805190602001909291905050506116c557600080fd5b7fe1fffcc4923d04b559f4d29a8bfc6cda04eb5b0d3c460751c2402c5c5cc9109c3382604051808373ffffffffffffffffffffffffffffffffffffffff1673ffffffffffffffffffffffffffffffffffffffff1681526020018281526020019250505060405180910390a15050565b60026020528060005260406000206000915054906101000a900460ff1681565b60015481565b6000809054906101000a900473ffffffffffffffffffffffffffffffffffffffff1673ffffffffffffffffffffffffffffffffffffffff163373ffffffffffffffffffffffffffffffffffffffff16146117b057fe5b6117b86111a2565b600460009054906101000a900473ffffffffffffffffffffffffffffffffffffffff1673ffffffffffffffffffffffffffffffffffffffff1663a9059cbb82600460009054906101000a900473ffffffffffffffffffffffffffffffffffffffff1673ffffffffffffffffffffffffffffffffffffffff166370a08231306040518263ffffffff1660e01b8152600401808273ffffffffffffffffffffffffffffffffffffffff1673ffffffffffffffffffffffffffffffffffffffff16815260200191505060206040518083038186803b15801561189657600080fd5b505afa1580156118aa573d6000803e3d6000fd5b505050506040513d60208110156118c057600080fd5b81019080805190602001909291905050506040518363ffffffff1660e01b8152600401808373ffffffffffffffffffffffffffffffffffffffff1673ffffffffffffffffffffffffffffffffffffffff16815260200182815260200192505050602060405180830381600087803b15801561193a57600080fd5b505af115801561194e573d6000803e3d6000fd5b505050506040513d602081101561196457600080fd5b810190808051906020019092919050505061197e57600080fd5b50565b60036020528060005260406000206000915054906101000a900460ff1681565b6000809054906101000a900473ffffffffffffffffffffffffffffffffffffffff1673ffffffffffffffffffffffffffffffffffffffff163373ffffffffffffffffffffffffffffffffffffffff16146119f757fe5b6000600360008373ffffffffffffffffffffffffffffffffffffffff1673ffffffffffffffffffffffffffffffffffffffff16815260200190815260200160002060006101000a81548160ff02191690831515021790555050565b600060149054906101000a900460ff1615611a6957fe5b60011515600260003373ffffffffffffffffffffffffffffffffffffffff1673ffffffffffffffffffffffffffffffffffffffff16815260200190815260200160002060009054906101000a900460ff16151514611ac357fe5b818190508484905014611ad557600080fd5b60008090505b84849050811015611b3757611b2a858583818110611af557fe5b9050602002013573ffffffffffffffffffffffffffffffffffffffff16848484818110611b1e57fe5b90506020020135611d82565b8080600101915050611adb565b5050505050565b600060149054906101000a900460ff1615611b5557fe5b60011515600360003373ffffffffffffffffffffffffffffffffffffffff1673ffffffffffffffffffffffffffffffffffffffff16815260200190815260200160002060009054906101000a900460ff16151514611baf57fe5b81600581905550611c23600660008060009054906101000a900473ffffffffffffffffffffffffffffffffffffffff1673ffffffffffffffffffffffffffffffffffffffff1673ffffffffffffffffffffffffffffffffffffffff1681526020019081526020016000206000015482611f8f565b600660008060009054906101000a900473ffffffffffffffffffffffffffffffffffffffff1673ffffffffffffffffffffffffffffffffffffffff1673ffffffffffffffffffffffffffffffffffffffff1681526020019081526020016000206000018190555042600660008060009054906101000a900473ffffffffffffffffffffffffffffffffffffffff1673ffffffffffffffffffffffffffffffffffffffff1673ffffffffffffffffffffffffffffffffffffffff168152602001908152602001600020600101819055507f38ad611b8ae457b9126d4917f4ded0b60a8fbbfdd0dd4b04fc9469688b44934f6000809054906101000a900473ffffffffffffffffffffffffffffffffffffffff1682604051808373ffffffffffffffffffffffffffffffffffffffff1673ffffffffffffffffffffffffffffffffffffffff1681526020018281526020019250505060405180910390a15050565b600060149054906101000a900460ff1615611d9957fe5b60011515600260003373ffffffffffffffffffffffffffffffffffffffff1673ffffffffffffffffffffffffffffffffffffffff16815260200190815260200160002060009054906101000a900460ff16151514611df357fe5b600460009054906101000a900473ffffffffffffffffffffffffffffffffffffffff1673ffffffffffffffffffffffffffffffffffffffff1663a9059cbb83836040518363ffffffff1660e01b8152600401808373ffffffffffffffffffffffffffffffffffffffff1673ffffffffffffffffffffffffffffffffffffffff16815260200182815260200192505050602060405180830381600087803b158015611e9c57600080fd5b505af1158015611eb0573d6000803e3d6000fd5b505050506040513d6020811015611ec657600080fd5b8101908080519060200190929190505050611ee057600080fd5b7f2f174ca282119315c59efaf21147aef438581dabdeb498198ae28964373dd8bc8282604051808373ffffffffffffffffffffffffffffffffffffffff1673ffffffffffffffffffffffffffffffffffffffff1681526020018281526020019250505060405180910390a15050565b600460009054906101000a900473ffffffffffffffffffffffffffffffffffffffff1681565b6000828284039150811115611f8957600080fd5b92915050565b6000828284019150811015611fa357600080fd5b9291505056fea165627a7a72305820bbed1b92fa2108d23d6d3c8e63c6e12067203ad4ee75fcf378609c34cf3c8a890029",
    "source": "pragma solidity 0.5.8; \n\n/**\n  * @title DSMath\n  * @author MakerDAO\n  * @notice Safe math contracts from Maker.\n  */\ncontract DSMath {\n    function add(uint x, uint y) internal pure returns (uint z) {\n        require((z = x + y) >= x);\n    }\n    function sub(uint x, uint y) internal pure returns (uint z) {\n        require((z = x - y) <= x);\n    }\n    function mul(uint x, uint y) internal pure returns (uint z) {\n        require(y == 0 || (z = x * y) / y == x);\n    }\n\n    function min(uint x, uint y) internal pure returns (uint z) {\n        return x <= y ? x : y;\n    }\n    function max(uint x, uint y) internal pure returns (uint z) {\n        return x >= y ? x : y;\n    }\n    function imin(int x, int y) internal pure returns (int z) {\n        return x <= y ? x : y;\n    }\n    function imax(int x, int y) internal pure returns (int z) {\n        return x >= y ? x : y;\n    }\n}\n\n/**\n  * @title Owned\n  * @author BetProtocol\n  * @notice Basic owner properties.\n  */\ncontract Owned {\n    address public owner = msg.sender;\n\n    modifier isOwner {\n        assert(msg.sender == owner); _;\n    }\n\n    function changeOwner(address account) external isOwner {\n        owner = account;\n    }\n}\n\n/**\n  * @title Authorized\n  * @author BetProtocol\n  * @notice Allows a second tier of authrozed accounts. In this case will be the server keys.\n  * Only the Owner multisig can authorize new accounts.\n  */\ncontract Authorized is Owned {\n    mapping(address => bool) public authorized;\n    mapping(address => bool) public croupier;\n\n    modifier isAuthorized {\n        assert(authorized[msg.sender] == true); _;\n    }\n\n    modifier isCroupier{\n        assert(croupier[msg.sender] == true); _;\n    }\n\n    function authorizeCroupier(address account) external isOwner {\n        croupier[account] = true;\n    }\n\n    function unauthorizeCroupier(address account) external isOwner {\n        croupier[account] = false;\n    }\n\n    function authorizeAccount(address account) external isOwner {\n        authorized[account] = true;\n    }\n\n    function unauthorizeAccount(address account) external isOwner {\n        authorized[account] = false;\n    }\n}\n\n/**\n  * @title TimeRelease\n  * @author BetProtocol\n  * @notice Controls the generic release time for authorized transactions.\n  */\ncontract TimeRelease is Owned {\n    uint256 public releaseTime = 0;\n    \n    function changeReleaseTime(uint256 time) external isOwner {\n        releaseTime = time;\n    }\n}\n\n/**\n  * @title Pausable\n  * @author BetProtocol\n  * @notice Primitive events, methods, properties for a contract which can be\n        paused by a single owner.\n  */\ncontract Pausable is Owned {\n    event Pause();\n    event Unpause();\n\n    bool public paused;\n\n    modifier pausable {\n        assert(!paused); _;\n    }\n\n    modifier isPaused {\n        assert(paused); _;\n    }\n\n    function pause() public isOwner {\n        paused = true;\n\n        emit Pause();\n    }\n\n    function unpause() public isOwner {\n        paused = false;\n\n        emit Unpause();\n    }\n}\n\n/**\n  * @title ERC20Events\n  * @author EIP20 Authors\n  * @notice Primitive events for the ERC20 event specification.\n  */\ncontract ERC20Events {\n    event Transfer(address indexed from, address indexed to, uint256 tokens);\n    event Approval(address indexed tokenOwner, address indexed spender, uint256 tokens);\n}\n\n/**\n  * @title ERC20\n  * @author EIP/ERC20 Authors\n  * @author BokkyPooBah / Bok Consulting Pty Ltd 2018.\n  * @notice The ERC20 standard contract interface.\n  */\ncontract ERC20 is ERC20Events {\n    function totalSupply() external view returns (uint);\n    function balanceOf(address tokenOwner) public view returns (uint);\n    function allowance(address tokenOwner, address spender) external view returns (uint);\n\n    function approve(address spender, uint amount) public returns (bool);\n    function transfer(address to, uint amount) external returns (bool);\n    function transferFrom(address from, address to, uint amount) public returns (bool);\n}\n\n/**\n  * @title SingleTokenBank\n  * @author EIP/ERC20 Authors\n  * @author BokkyPooBah / Bok Consulting Pty Ltd 2018.\n  * @notice The ERC20 standard contract interface.\n  */\ncontract SingleTokenBank is Owned, Pausable, TimeRelease, Authorized, DSMath {\n    struct Withdrawal {\n        uint256 amount;\n        uint256 timestamp;\n    }\n\n    ERC20 public token;\n    uint256 public totalPlayerBalance;\n    mapping(address => Withdrawal) public withdrawals;\n\n\t// informs listeners how many tokens were deposited for a player\n\tevent Deposit(address _player, uint256 _amount);\n\n\t// informs listeners how many tokens were withdrawn from the player to the receiver address\n\tevent WithdrawalEvent(address _player, uint256 _amount);\n\t\n\t// set withdrawal\n\tevent WithdrawalSet(address _player, uint256 _amount);\n\t\t\t\n\tconstructor(address _token, address _authorized, address _owner) public {\n\t   token = ERC20(_token);\n\t   owner = _owner; // multisig\n\t   authorized[_authorized] = true; // your server address\n\t   authorized[owner] = true; // also multisig\n\t}\n\n\tfunction deposit(uint256 _amount) external pausable {\n        uint256 allowance = token.allowance(msg.sender, address(this));\n        require(_amount > 0);\n        require(_amount <= allowance);\n        require(token.transferFrom(msg.sender, address(this), _amount));\n        emit Deposit(msg.sender, allowance);\n\t}\n\n\t/**\n\t * returns the current bankroll in tokens with 0 decimals\n\t **/\n\tfunction bankroll() view public returns(uint) {\n\t\treturn sub(token.balanceOf(address(this)), totalPlayerBalance);\n\t}\n\n    // set a withdrawal amount for a player\n\tfunction setUserWithdrawal(address _player, uint256 _amount) public pausable isAuthorized {\n       \trequire(token.transfer(_player, _amount));\n        emit WithdrawalEvent(_player, _amount);\n\t}\n\n    function setUserWithdrawalBatch(address[] calldata _players, uint256[] calldata _amount) external pausable isAuthorized {\n        require(_players.length == _amount.length);\n        for(uint i = 0; i < _players.length; i++) {\n            setUserWithdrawal(_players[i], _amount[i]);\n        }\n    }\n\n    // set a withdrawal amount for the owner\n\tfunction setOwnerWithdrawal(uint256 _totalPlayerBalance, uint256 _amount) external pausable isCroupier {\n        totalPlayerBalance = _totalPlayerBalance;\n        withdrawals[owner].amount = add(withdrawals[owner].amount, _amount);\n        withdrawals[owner].timestamp = block.timestamp;\n        emit WithdrawalSet(owner, _amount);\n\t}\n\n    // change Token Contract Address\n\tfunction changeSingleTokenContract(address _token) public isOwner {\n        token = ERC20(_token);\n\t}\n\n    function updateToNewContract(address _newContract) external isOwner {\n        pause(); //pause Contract\n        require(token.transfer(_newContract, token.balanceOf(address(this))));\n    }\n\n\tfunction ownerWithdrawalEther(address payable _destination, uint256 _amount) external isOwner {\n\t\t_destination.transfer(_amount);\n\t}\n\n    function withdrawAccidentalSentTokens(address _tokenAddress) public isOwner {\n        ERC20 erc20 = ERC20(_tokenAddress);\n        require(address(erc20) != address(token)); // verify that the main token is different from the accidental one\n        require(erc20.transfer(owner, erc20.balanceOf(address(this))));\n\t}\n\n\tfunction ownerWithdrawalTokens(address _destination, uint256 _amount) external isOwner {\n\t    require((paused == false) && (_amount <= bankroll()) && (_amount <= withdrawals[msg.sender].amount) // only house winnings\n\t        || (paused == true)); // or take entire balance if paused..\n\t\trequire(token.transfer(_destination, _amount));\n        if(!paused){\n\t\t    withdrawals[msg.sender].amount = sub(withdrawals[msg.sender].amount, _amount);\n        }\n\t\temit WithdrawalEvent(address(this), _amount);\n\t}\n}",
    "sourcePath": "/Users/ruipedro/Desktop/BetProtocol/ethereum/ethereum-tools/contracts/SingleTokenBank.sol",
    "compiler": {
        "name": "solc",
        "version": "0.5.8+commit.23d335f2.Emscripten.clang"
    },
    "schemaVersion": "3.0.11",
    "updatedAt": "2020-01-12T12:22:46.849Z",
    "devdoc": {
        "author": "EIP/ERC20 AuthorsBokkyPooBah / Bok Consulting Pty Ltd 2018.",
        "methods": {},
        "title": "SingleTokenBank"
    },
    "userdoc": {
        "methods": {
            "bankroll()": {
                "notice": "returns the current bankroll in tokens with 0 decimals*"
            }
        },
        "notice": "The ERC20 standard contract interface."
    }
}