{
    "contractName": "ETHTokenBank",
    "abi": [
        {
            "constant": false,
            "inputs": [
                {
                    "name": "account",
                    "type": "address"
                }
            ],
            "name": "authorizeCroupier",
            "outputs": [],
            "payable": false,
            "stateMutability": "nonpayable",
            "type": "function"
        },
        {
            "constant": false,
            "inputs": [
                {
                    "name": "time",
                    "type": "uint256"
                }
            ],
            "name": "changeReleaseTime",
            "outputs": [],
            "payable": false,
            "stateMutability": "nonpayable",
            "type": "function"
        },
        {
            "constant": false,
            "inputs": [],
            "name": "unpause",
            "outputs": [],
            "payable": false,
            "stateMutability": "nonpayable",
            "type": "function"
        },
        {
            "constant": true,
            "inputs": [],
            "name": "paused",
            "outputs": [
                {
                    "name": "",
                    "type": "bool"
                }
            ],
            "payable": false,
            "stateMutability": "view",
            "type": "function"
        },
        {
            "constant": true,
            "inputs": [],
            "name": "totalPlayerBalance",
            "outputs": [
                {
                    "name": "",
                    "type": "uint256"
                }
            ],
            "payable": false,
            "stateMutability": "view",
            "type": "function"
        },
        {
            "constant": true,
            "inputs": [
                {
                    "name": "",
                    "type": "address"
                }
            ],
            "name": "withdrawals",
            "outputs": [
                {
                    "name": "amount",
                    "type": "uint256"
                },
                {
                    "name": "timestamp",
                    "type": "uint256"
                }
            ],
            "payable": false,
            "stateMutability": "view",
            "type": "function"
        },
        {
            "constant": false,
            "inputs": [],
            "name": "pause",
            "outputs": [],
            "payable": false,
            "stateMutability": "nonpayable",
            "type": "function"
        },
        {
            "constant": true,
            "inputs": [],
            "name": "owner",
            "outputs": [
                {
                    "name": "",
                    "type": "address"
                }
            ],
            "payable": false,
            "stateMutability": "view",
            "type": "function"
        },
        {
            "constant": false,
            "inputs": [
                {
                    "name": "account",
                    "type": "address"
                }
            ],
            "name": "changeOwner",
            "outputs": [],
            "payable": false,
            "stateMutability": "nonpayable",
            "type": "function"
        },
        {
            "constant": false,
            "inputs": [
                {
                    "name": "account",
                    "type": "address"
                }
            ],
            "name": "authorizeAccount",
            "outputs": [],
            "payable": false,
            "stateMutability": "nonpayable",
            "type": "function"
        },
        {
            "constant": false,
            "inputs": [
                {
                    "name": "account",
                    "type": "address"
                }
            ],
            "name": "unauthorizeAccount",
            "outputs": [],
            "payable": false,
            "stateMutability": "nonpayable",
            "type": "function"
        },
        {
            "constant": true,
            "inputs": [
                {
                    "name": "",
                    "type": "address"
                }
            ],
            "name": "authorized",
            "outputs": [
                {
                    "name": "",
                    "type": "bool"
                }
            ],
            "payable": false,
            "stateMutability": "view",
            "type": "function"
        },
        {
            "constant": true,
            "inputs": [],
            "name": "releaseTime",
            "outputs": [
                {
                    "name": "",
                    "type": "uint256"
                }
            ],
            "payable": false,
            "stateMutability": "view",
            "type": "function"
        },
        {
            "constant": true,
            "inputs": [
                {
                    "name": "",
                    "type": "address"
                }
            ],
            "name": "croupier",
            "outputs": [
                {
                    "name": "",
                    "type": "bool"
                }
            ],
            "payable": false,
            "stateMutability": "view",
            "type": "function"
        },
        {
            "constant": false,
            "inputs": [
                {
                    "name": "account",
                    "type": "address"
                }
            ],
            "name": "unauthorizeCroupier",
            "outputs": [],
            "payable": false,
            "stateMutability": "nonpayable",
            "type": "function"
        },
        {
            "inputs": [
                {
                    "name": "_authorized",
                    "type": "address"
                },
                {
                    "name": "_owner",
                    "type": "address"
                }
            ],
            "payable": false,
            "stateMutability": "nonpayable",
            "type": "constructor"
        },
        {
            "payable": true,
            "stateMutability": "payable",
            "type": "fallback"
        },
        {
            "anonymous": false,
            "inputs": [
                {
                    "indexed": false,
                    "name": "_player",
                    "type": "address"
                },
                {
                    "indexed": false,
                    "name": "_amount",
                    "type": "uint256"
                }
            ],
            "name": "Deposit",
            "type": "event"
        },
        {
            "anonymous": false,
            "inputs": [
                {
                    "indexed": false,
                    "name": "_player",
                    "type": "address"
                },
                {
                    "indexed": false,
                    "name": "_amount",
                    "type": "uint256"
                }
            ],
            "name": "WithdrawalEvent",
            "type": "event"
        },
        {
            "anonymous": false,
            "inputs": [
                {
                    "indexed": false,
                    "name": "_player",
                    "type": "address"
                },
                {
                    "indexed": false,
                    "name": "_amount",
                    "type": "uint256"
                }
            ],
            "name": "WithdrawalSet",
            "type": "event"
        },
        {
            "anonymous": false,
            "inputs": [],
            "name": "Pause",
            "type": "event"
        },
        {
            "anonymous": false,
            "inputs": [],
            "name": "Unpause",
            "type": "event"
        },
        {
            "constant": true,
            "inputs": [],
            "name": "bankroll",
            "outputs": [
                {
                    "name": "",
                    "type": "uint256"
                }
            ],
            "payable": false,
            "stateMutability": "view",
            "type": "function"
        },
        {
            "constant": false,
            "inputs": [
                {
                    "name": "_player",
                    "type": "address"
                },
                {
                    "name": "_amount",
                    "type": "uint256"
                }
            ],
            "name": "setUserWithdrawal",
            "outputs": [],
            "payable": false,
            "stateMutability": "nonpayable",
            "type": "function"
        },
        {
            "constant": false,
            "inputs": [
                {
                    "name": "_players",
                    "type": "address[]"
                },
                {
                    "name": "_amount",
                    "type": "uint256[]"
                }
            ],
            "name": "setUserWithdrawalBatch",
            "outputs": [],
            "payable": false,
            "stateMutability": "nonpayable",
            "type": "function"
        },
        {
            "constant": false,
            "inputs": [
                {
                    "name": "_totalPlayerBalance",
                    "type": "uint256"
                },
                {
                    "name": "_amount",
                    "type": "uint256"
                }
            ],
            "name": "setOwnerWithdrawal",
            "outputs": [],
            "payable": false,
            "stateMutability": "nonpayable",
            "type": "function"
        },
        {
            "constant": false,
            "inputs": [
                {
                    "name": "_newContract",
                    "type": "address"
                }
            ],
            "name": "updateToNewContract",
            "outputs": [],
            "payable": false,
            "stateMutability": "nonpayable",
            "type": "function"
        },
        {
            "constant": false,
            "inputs": [
                {
                    "name": "_destination",
                    "type": "address"
                },
                {
                    "name": "_amount",
                    "type": "uint256"
                }
            ],
            "name": "ownerWithdrawalEther",
            "outputs": [],
            "payable": false,
            "stateMutability": "nonpayable",
            "type": "function"
        },
        {
            "constant": false,
            "inputs": [
                {
                    "name": "_tokenAddress",
                    "type": "address"
                }
            ],
            "name": "withdrawAccidentalSentTokens",
            "outputs": [],
            "payable": false,
            "stateMutability": "nonpayable",
            "type": "function"
        },
        {
            "constant": false,
            "inputs": [
                {
                    "name": "_destination",
                    "type": "address"
                },
                {
                    "name": "_amount",
                    "type": "uint256"
                }
            ],
            "name": "ownerWithdrawalTokens",
            "outputs": [],
            "payable": false,
            "stateMutability": "nonpayable",
            "type": "function"
        }
    ],
    "bytecode": "0x6080604052336000806101000a81548173ffffffffffffffffffffffffffffffffffffffff021916908373ffffffffffffffffffffffffffffffffffffffff160217905550600060015534801561005557600080fd5b50604051604080611aac8339810180604052604081101561007557600080fd5b810190808051906020019092919080519060200190929190505050806000806101000a81548173ffffffffffffffffffffffffffffffffffffffff021916908373ffffffffffffffffffffffffffffffffffffffff1602179055506001600260008473ffffffffffffffffffffffffffffffffffffffff1673ffffffffffffffffffffffffffffffffffffffff16815260200190815260200160002060006101000a81548160ff0219169083151502179055506001600260008060009054906101000a900473ffffffffffffffffffffffffffffffffffffffff1673ffffffffffffffffffffffffffffffffffffffff1673ffffffffffffffffffffffffffffffffffffffff16815260200190815260200160002060006101000a81548160ff02191690831515021790555050506118fa806101b26000396000f3fe6080604052600436106101405760003560e01c80638da5cb5b116100b6578063c74058be1161006f578063c74058be1461063d578063c832b3381461068e578063df58410a146106f7578063ef40b7ee14610748578063f5b235b114610823578063f9a4a7561461086857610140565b80638da5cb5b1461045f578063a6f9dae1146104b6578063a9a8679b14610507578063b0b2a57514610558578063b9181611146105a9578063b91d40011461061257610140565b80633923494811610108578063392349481461031a5780633f4ba83a1461036b5780635c975abb146103825780636e30418b146103b15780637a9262a2146103dc5780638456cb591461044857610140565b806303df234d146101ad5780630c657eb0146101fe57806324861c0314610229578063275ba344146102845780632e0f2ce1146102df575b7fe1fffcc4923d04b559f4d29a8bfc6cda04eb5b0d3c460751c2402c5c5cc9109c3334604051808373ffffffffffffffffffffffffffffffffffffffff1673ffffffffffffffffffffffffffffffffffffffff1681526020018281526020019250505060405180910390a1005b3480156101b957600080fd5b506101fc600480360360208110156101d057600080fd5b81019080803573ffffffffffffffffffffffffffffffffffffffff1690602001909291905050506108c3565b005b34801561020a57600080fd5b50610213610974565b6040518082815260200191505060405180910390f35b34801561023557600080fd5b506102826004803603604081101561024c57600080fd5b81019080803573ffffffffffffffffffffffffffffffffffffffff1690602001909291908035906020019092919050505061099e565b005b34801561029057600080fd5b506102dd600480360360408110156102a757600080fd5b81019080803573ffffffffffffffffffffffffffffffffffffffff16906020019092919080359060200190929190505050610bf0565b005b3480156102eb57600080fd5b506103186004803603602081101561030257600080fd5b8101908080359060200190929190505050610c91565b005b34801561032657600080fd5b506103696004803603602081101561033d57600080fd5b81019080803573ffffffffffffffffffffffffffffffffffffffff169060200190929190505050610cf1565b005b34801561037757600080fd5b50610380610ef3565b005b34801561038e57600080fd5b50610397610f91565b604051808215151515815260200191505060405180910390f35b3480156103bd57600080fd5b506103c6610fa4565b6040518082815260200191505060405180910390f35b3480156103e857600080fd5b5061042b600480360360208110156103ff57600080fd5b81019080803573ffffffffffffffffffffffffffffffffffffffff169060200190929190505050610faa565b604051808381526020018281526020019250505060405180910390f35b34801561045457600080fd5b5061045d610fce565b005b34801561046b57600080fd5b5061047461106d565b604051808273ffffffffffffffffffffffffffffffffffffffff1673ffffffffffffffffffffffffffffffffffffffff16815260200191505060405180910390f35b3480156104c257600080fd5b50610505600480360360208110156104d957600080fd5b81019080803573ffffffffffffffffffffffffffffffffffffffff169060200190929190505050611092565b005b34801561051357600080fd5b506105566004803603602081101561052a57600080fd5b81019080803573ffffffffffffffffffffffffffffffffffffffff16906020019092919050505061112b565b005b34801561056457600080fd5b506105a76004803603602081101561057b57600080fd5b81019080803573ffffffffffffffffffffffffffffffffffffffff1690602001909291905050506111dc565b005b3480156105b557600080fd5b506105f8600480360360208110156105cc57600080fd5b81019080803573ffffffffffffffffffffffffffffffffffffffff16906020019092919050505061128d565b604051808215151515815260200191505060405180910390f35b34801561061e57600080fd5b506106276112ad565b6040518082815260200191505060405180910390f35b34801561064957600080fd5b5061068c6004803603602081101561066057600080fd5b81019080803573ffffffffffffffffffffffffffffffffffffffff1690602001909291905050506112b3565b005b34801561069a57600080fd5b506106dd600480360360208110156106b157600080fd5b81019080803573ffffffffffffffffffffffffffffffffffffffff169060200190929190505050611372565b604051808215151515815260200191505060405180910390f35b34801561070357600080fd5b506107466004803603602081101561071a57600080fd5b81019080803573ffffffffffffffffffffffffffffffffffffffff169060200190929190505050611392565b005b34801561075457600080fd5b506108216004803603604081101561076b57600080fd5b810190808035906020019064010000000081111561078857600080fd5b82018360208201111561079a57600080fd5b803590602001918460208302840111640100000000831117156107bc57600080fd5b9091929391929390803590602001906401000000008111156107dd57600080fd5b8201836020820111156107ef57600080fd5b8035906020019184602083028401116401000000008311171561081157600080fd5b9091929391929390505050611443565b005b34801561082f57600080fd5b506108666004803603604081101561084657600080fd5b81019080803590602001909291908035906020019092919050505061152f565b005b34801561087457600080fd5b506108c16004803603604081101561088b57600080fd5b81019080803573ffffffffffffffffffffffffffffffffffffffff16906020019092919080359060200190929190505050611773565b005b6000809054906101000a900473ffffffffffffffffffffffffffffffffffffffff1673ffffffffffffffffffffffffffffffffffffffff163373ffffffffffffffffffffffffffffffffffffffff161461091957fe5b6001600360008373ffffffffffffffffffffffffffffffffffffffff1673ffffffffffffffffffffffffffffffffffffffff16815260200190815260200160002060006101000a81548160ff02191690831515021790555050565b60006109993073ffffffffffffffffffffffffffffffffffffffff163160045461189a565b905090565b6000809054906101000a900473ffffffffffffffffffffffffffffffffffffffff1673ffffffffffffffffffffffffffffffffffffffff163373ffffffffffffffffffffffffffffffffffffffff16146109f457fe5b60001515600060149054906101000a900460ff161515148015610a1e5750610a1a610974565b8111155b8015610a6c5750600560003373ffffffffffffffffffffffffffffffffffffffff1673ffffffffffffffffffffffffffffffffffffffff168152602001908152602001600020600001548111155b80610a8a575060011515600060149054906101000a900460ff161515145b610a9357600080fd5b8173ffffffffffffffffffffffffffffffffffffffff166108fc829081150290604051600060405180830381858888f19350505050158015610ad9573d6000803e3d6000fd5b50600060149054906101000a900460ff16610b8157610b3a600560003373ffffffffffffffffffffffffffffffffffffffff1673ffffffffffffffffffffffffffffffffffffffff168152602001908152602001600020600001548261189a565b600560003373ffffffffffffffffffffffffffffffffffffffff1673ffffffffffffffffffffffffffffffffffffffff168152602001908152602001600020600001819055505b7f2f174ca282119315c59efaf21147aef438581dabdeb498198ae28964373dd8bc3082604051808373ffffffffffffffffffffffffffffffffffffffff1673ffffffffffffffffffffffffffffffffffffffff1681526020018281526020019250505060405180910390a15050565b6000809054906101000a900473ffffffffffffffffffffffffffffffffffffffff1673ffffffffffffffffffffffffffffffffffffffff163373ffffffffffffffffffffffffffffffffffffffff1614610c4657fe5b8173ffffffffffffffffffffffffffffffffffffffff166108fc829081150290604051600060405180830381858888f19350505050158015610c8c573d6000803e3d6000fd5b505050565b6000809054906101000a900473ffffffffffffffffffffffffffffffffffffffff1673ffffffffffffffffffffffffffffffffffffffff163373ffffffffffffffffffffffffffffffffffffffff1614610ce757fe5b8060018190555050565b6000809054906101000a900473ffffffffffffffffffffffffffffffffffffffff1673ffffffffffffffffffffffffffffffffffffffff163373ffffffffffffffffffffffffffffffffffffffff1614610d4757fe5b60008190508073ffffffffffffffffffffffffffffffffffffffff1663a9059cbb6000809054906101000a900473ffffffffffffffffffffffffffffffffffffffff168373ffffffffffffffffffffffffffffffffffffffff166370a08231306040518263ffffffff1660e01b8152600401808273ffffffffffffffffffffffffffffffffffffffff1673ffffffffffffffffffffffffffffffffffffffff16815260200191505060206040518083038186803b158015610e0757600080fd5b505afa158015610e1b573d6000803e3d6000fd5b505050506040513d6020811015610e3157600080fd5b81019080805190602001909291905050506040518363ffffffff1660e01b8152600401808373ffffffffffffffffffffffffffffffffffffffff1673ffffffffffffffffffffffffffffffffffffffff16815260200182815260200192505050602060405180830381600087803b158015610eab57600080fd5b505af1158015610ebf573d6000803e3d6000fd5b505050506040513d6020811015610ed557600080fd5b8101908080519060200190929190505050610eef57600080fd5b5050565b6000809054906101000a900473ffffffffffffffffffffffffffffffffffffffff1673ffffffffffffffffffffffffffffffffffffffff163373ffffffffffffffffffffffffffffffffffffffff1614610f4957fe5b60008060146101000a81548160ff0219169083151502179055507f7805862f689e2f13df9f062ff482ad3ad112aca9e0847911ed832e158c525b3360405160405180910390a1565b600060149054906101000a900460ff1681565b60045481565b60056020528060005260406000206000915090508060000154908060010154905082565b6000809054906101000a900473ffffffffffffffffffffffffffffffffffffffff1673ffffffffffffffffffffffffffffffffffffffff163373ffffffffffffffffffffffffffffffffffffffff161461102457fe5b6001600060146101000a81548160ff0219169083151502179055507f6985a02210a168e66602d3235cb6db0e70f92b3ba4d376a33c0f3d9434bff62560405160405180910390a1565b6000809054906101000a900473ffffffffffffffffffffffffffffffffffffffff1681565b6000809054906101000a900473ffffffffffffffffffffffffffffffffffffffff1673ffffffffffffffffffffffffffffffffffffffff163373ffffffffffffffffffffffffffffffffffffffff16146110e857fe5b806000806101000a81548173ffffffffffffffffffffffffffffffffffffffff021916908373ffffffffffffffffffffffffffffffffffffffff16021790555050565b6000809054906101000a900473ffffffffffffffffffffffffffffffffffffffff1673ffffffffffffffffffffffffffffffffffffffff163373ffffffffffffffffffffffffffffffffffffffff161461118157fe5b6001600260008373ffffffffffffffffffffffffffffffffffffffff1673ffffffffffffffffffffffffffffffffffffffff16815260200190815260200160002060006101000a81548160ff02191690831515021790555050565b6000809054906101000a900473ffffffffffffffffffffffffffffffffffffffff1673ffffffffffffffffffffffffffffffffffffffff163373ffffffffffffffffffffffffffffffffffffffff161461123257fe5b6000600260008373ffffffffffffffffffffffffffffffffffffffff1673ffffffffffffffffffffffffffffffffffffffff16815260200190815260200160002060006101000a81548160ff02191690831515021790555050565b60026020528060005260406000206000915054906101000a900460ff1681565b60015481565b6000809054906101000a900473ffffffffffffffffffffffffffffffffffffffff1673ffffffffffffffffffffffffffffffffffffffff163373ffffffffffffffffffffffffffffffffffffffff161461130957fe5b611311610fce565b8073ffffffffffffffffffffffffffffffffffffffff166108fc3073ffffffffffffffffffffffffffffffffffffffff16319081150290604051600060405180830381858888f1935050505015801561136e573d6000803e3d6000fd5b5050565b60036020528060005260406000206000915054906101000a900460ff1681565b6000809054906101000a900473ffffffffffffffffffffffffffffffffffffffff1673ffffffffffffffffffffffffffffffffffffffff163373ffffffffffffffffffffffffffffffffffffffff16146113e857fe5b6000600360008373ffffffffffffffffffffffffffffffffffffffff1673ffffffffffffffffffffffffffffffffffffffff16815260200190815260200160002060006101000a81548160ff02191690831515021790555050565b600060149054906101000a900460ff161561145a57fe5b60011515600260003373ffffffffffffffffffffffffffffffffffffffff1673ffffffffffffffffffffffffffffffffffffffff16815260200190815260200160002060009054906101000a900460ff161515146114b457fe5b8181905084849050146114c657600080fd5b60008090505b848490508110156115285761151b8585838181106114e657fe5b9050602002013573ffffffffffffffffffffffffffffffffffffffff1684848481811061150f57fe5b90506020020135611773565b80806001019150506114cc565b5050505050565b600060149054906101000a900460ff161561154657fe5b60011515600360003373ffffffffffffffffffffffffffffffffffffffff1673ffffffffffffffffffffffffffffffffffffffff16815260200190815260200160002060009054906101000a900460ff161515146115a057fe5b81600481905550611614600560008060009054906101000a900473ffffffffffffffffffffffffffffffffffffffff1673ffffffffffffffffffffffffffffffffffffffff1673ffffffffffffffffffffffffffffffffffffffff16815260200190815260200160002060000154826118b4565b600560008060009054906101000a900473ffffffffffffffffffffffffffffffffffffffff1673ffffffffffffffffffffffffffffffffffffffff1673ffffffffffffffffffffffffffffffffffffffff1681526020019081526020016000206000018190555042600560008060009054906101000a900473ffffffffffffffffffffffffffffffffffffffff1673ffffffffffffffffffffffffffffffffffffffff1673ffffffffffffffffffffffffffffffffffffffff168152602001908152602001600020600101819055507f38ad611b8ae457b9126d4917f4ded0b60a8fbbfdd0dd4b04fc9469688b44934f6000809054906101000a900473ffffffffffffffffffffffffffffffffffffffff1682604051808373ffffffffffffffffffffffffffffffffffffffff1673ffffffffffffffffffffffffffffffffffffffff1681526020018281526020019250505060405180910390a15050565b600060149054906101000a900460ff161561178a57fe5b60011515600260003373ffffffffffffffffffffffffffffffffffffffff1673ffffffffffffffffffffffffffffffffffffffff16815260200190815260200160002060009054906101000a900460ff161515146117e457fe5b8173ffffffffffffffffffffffffffffffffffffffff166108fc829081150290604051600060405180830381858888f1935050505015801561182a573d6000803e3d6000fd5b507f2f174ca282119315c59efaf21147aef438581dabdeb498198ae28964373dd8bc8282604051808373ffffffffffffffffffffffffffffffffffffffff1673ffffffffffffffffffffffffffffffffffffffff1681526020018281526020019250505060405180910390a15050565b60008282840391508111156118ae57600080fd5b92915050565b60008282840191508110156118c857600080fd5b9291505056fea165627a7a7230582060ee06bc61f273cba6c3637924ad0ab57b17f51ff0a035d33f9d16a84df6b0740029",
    "source": "pragma solidity 0.5.8; \n\n/**\n  * @title DSMath\n  * @author MakerDAO\n  * @notice Safe math contracts from Maker.\n  */\ncontract DSMath {\n    function add(uint x, uint y) internal pure returns (uint z) {\n        require((z = x + y) >= x);\n    }\n    function sub(uint x, uint y) internal pure returns (uint z) {\n        require((z = x - y) <= x);\n    }\n    function mul(uint x, uint y) internal pure returns (uint z) {\n        require(y == 0 || (z = x * y) / y == x);\n    }\n\n    function min(uint x, uint y) internal pure returns (uint z) {\n        return x <= y ? x : y;\n    }\n    function max(uint x, uint y) internal pure returns (uint z) {\n        return x >= y ? x : y;\n    }\n    function imin(int x, int y) internal pure returns (int z) {\n        return x <= y ? x : y;\n    }\n    function imax(int x, int y) internal pure returns (int z) {\n        return x >= y ? x : y;\n    }\n}\n\n/**\n  * @title Owned\n  * @author BetProtocol\n  * @notice Basic owner properties.\n  */\ncontract Owned {\n    address public owner = msg.sender;\n\n    modifier isOwner {\n        assert(msg.sender == owner); _;\n    }\n\n    function changeOwner(address account) external isOwner {\n        owner = account;\n    }\n}\n\n/**\n  * @title ERC20Events\n  * @author EIP20 Authors\n  * @notice Primitive events for the ERC20 event specification.\n  */\ncontract ERC20Events {\n    event Transfer(address indexed from, address indexed to, uint256 tokens);\n    event Approval(address indexed tokenOwner, address indexed spender, uint256 tokens);\n}\n\n/**\n  * @title ERC20\n  * @author EIP/ERC20 Authors\n  * @author BokkyPooBah / Bok Consulting Pty Ltd 2018.\n  * @notice The ERC20 standard contract interface.\n  */\ncontract ERC20 is ERC20Events {\n    function totalSupply() external view returns (uint);\n    function balanceOf(address tokenOwner) public view returns (uint);\n    function allowance(address tokenOwner, address spender) external view returns (uint);\n\n    function approve(address spender, uint amount) public returns (bool);\n    function transfer(address to, uint amount) external returns (bool);\n    function transferFrom(address from, address to, uint amount) public returns (bool);\n}\n\n/**\n  * @title Authorized\n  * @author BetProtocol\n  * @notice Allows a second tier of authrozed accounts. In this case will be the server keys.\n  * Only the Owner multisig can authorize new accounts.\n  */\ncontract Authorized is Owned {\n    mapping(address => bool) public authorized;\n    mapping(address => bool) public croupier;\n\n    modifier isAuthorized {\n        assert(authorized[msg.sender] == true); _;\n    }\n\n    modifier isCroupier{\n        assert(croupier[msg.sender] == true); _;\n    }\n\n    function authorizeCroupier(address account) external isOwner {\n        croupier[account] = true;\n    }\n\n    function unauthorizeCroupier(address account) external isOwner {\n        croupier[account] = false;\n    }\n\n    function authorizeAccount(address account) external isOwner {\n        authorized[account] = true;\n    }\n\n    function unauthorizeAccount(address account) external isOwner {\n        authorized[account] = false;\n    }\n}\n\n/**\n  * @title TimeRelease\n  * @author BetProtocol\n  * @notice Controls the generic release time for authorized transactions.\n  */\ncontract TimeRelease is Owned {\n    uint256 public releaseTime = 0;\n    \n    function changeReleaseTime(uint256 time) external isOwner {\n        releaseTime = time;\n    }\n}\n\n/**\n  * @title Pausable\n  * @author BetProtocol\n  * @notice Primitive events, methods, properties for a contract which can be\n        paused by a single owner.\n  */\ncontract Pausable is Owned {\n    event Pause();\n    event Unpause();\n\n    bool public paused;\n\n    modifier pausable {\n        assert(!paused); _;\n    }\n\n    modifier isPaused {\n        assert(paused); _;\n    }\n\n    function pause() public isOwner {\n        paused = true;\n\n        emit Pause();\n    }\n\n    function unpause() public isOwner {\n        paused = false;\n\n        emit Unpause();\n    }\n}\n\n/**\n  * @title SingleTokenBank\n  * @author EIP/ERC20 Authors\n  * @author BokkyPooBah / Bok Consulting Pty Ltd 2018.\n  * @notice The ERC20 standard contract interface.\n  */\ncontract ETHTokenBank is Owned, Pausable, TimeRelease, Authorized, DSMath {\n    struct Withdrawal {\n        uint256 amount;\n        uint256 timestamp;\n    }\n\n    uint256 public totalPlayerBalance;\n    mapping(address => Withdrawal) public withdrawals;\n\n\t// informs listeners how many tokens were deposited for a player\n\tevent Deposit(address _player, uint256 _amount);\n\n\t// informs listeners how many tokens were withdrawn from the player to the receiver address\n\tevent WithdrawalEvent(address _player, uint256 _amount);\n\t\n\t// set withdrawal\n\tevent WithdrawalSet(address _player, uint256 _amount);\n\t\t\t\n\tconstructor(address _authorized, address _owner) public {\n\t   owner = _owner; // multisig\n\t   authorized[_authorized] = true; // your server address\n\t   authorized[owner] = true; // also multisig\n\t}\n\n    function () external payable {\n        emit Deposit(msg.sender, msg.value);\n    }\n\n\n\t/**\n\t * returns the current bankroll in tokens with 0 decimals\n\t **/\n\tfunction bankroll() view public returns(uint) {\n\t\treturn sub(address(this).balance, totalPlayerBalance);\n\t}\n\n    // set a withdrawal amount for a player\n\tfunction setUserWithdrawal(address payable _player, uint256 _amount) public pausable isAuthorized {\n       \t_player.transfer(_amount);\n        emit WithdrawalEvent(_player, _amount);\n\t}\n\n    function setUserWithdrawalBatch(address[] calldata _players, uint256[] calldata _amount) external pausable isAuthorized {\n        require(_players.length == _amount.length);\n        for(uint i = 0; i < _players.length; i++) {\n            setUserWithdrawal(address(uint160(_players[i])), _amount[i]);\n        }\n    }\n\n    // set a withdrawal amount for the owner\n\tfunction setOwnerWithdrawal(uint256 _totalPlayerBalance, uint256 _amount) external pausable isCroupier {\n        totalPlayerBalance = _totalPlayerBalance;\n        withdrawals[owner].amount = add(withdrawals[owner].amount, _amount);\n        withdrawals[owner].timestamp = block.timestamp;\n        emit WithdrawalSet(owner, _amount);\n\t}\n\n    function updateToNewContract(address payable _newContract) external isOwner {\n        pause(); //pause Contract\n        _newContract.transfer(address(this).balance);\n    }\n\n\tfunction ownerWithdrawalEther(address payable _destination, uint256 _amount) external isOwner {\n\t\t_destination.transfer(_amount);\n\t}\n\n    function withdrawAccidentalSentTokens(address _tokenAddress) public isOwner {\n        ERC20 erc20 = ERC20(_tokenAddress);\n        require(erc20.transfer(owner, erc20.balanceOf(address(this))));\n\t}\n\n\tfunction ownerWithdrawalTokens(address payable _destination, uint256 _amount) external isOwner {\n\t    require((paused == false) && (_amount <= bankroll()) && (_amount <= withdrawals[msg.sender].amount) // only house winnings\n\t        || (paused == true)); // or take entire balance if paused..\n\t\t_destination.transfer(_amount);\n        if(!paused){\n\t\t    withdrawals[msg.sender].amount = sub(withdrawals[msg.sender].amount, _amount);\n        }\n\t\temit WithdrawalEvent(address(this), _amount);\n\t}\n}",
    "sourcePath": "/Users/ruipedro/Desktop/BetProtocol/ethereum/ethereum-tools/contracts/ETHBank.sol",
    "compiler": {
        "name": "solc",
        "version": "0.5.8+commit.23d335f2.Emscripten.clang"
    },
    "schemaVersion": "3.0.11",
    "updatedAt": "2020-01-12T12:22:46.532Z",
    "devdoc": {
        "author": "EIP/ERC20 AuthorsBokkyPooBah / Bok Consulting Pty Ltd 2018.",
        "methods": {},
        "title": "SingleTokenBank"
    },
    "userdoc": {
        "methods": {
            "bankroll()": {
                "notice": "returns the current bankroll in tokens with 0 decimals*"
            }
        },
        "notice": "The ERC20 standard contract interface."
    }
}